:020000040801F1
:10000000F099002051030108590301085B0301081E
:100010005D0301085F03010861030108000000009F
:1000200000000000000000000000000005020108C0
:100030006503010800000000C90201083D03010832
:100040006B0301086B0301086B0301086B030108D4
:100050006B0301086B0301086B0301086B030108C4
:100060006B0301086B0301086B030108A11D010864
:100070006B0301086B0301086B0301086B030108A4
:100080006B0301086B030108710D01087948010831
:10009000B94801086B0301086B0301086B030108F1
:1000A0006B0301086B0301086B0301086B03010874
:1000B0006B030108354301086B0301086B0301085A
:1000C0006B0301086B0301086B0301086B03010854
:1000D0006B0301086B0301086B0301086B03010844
:1000E0006B0301086B0301086B0301086B03010834
:1000F0006B0301086B0301086B0301086B03010824
:100100000000000000000000000000006B03010878
:100110006B0301086B0301086B0301086B03010803
:100120006B0301086B0301086B0301086B030108F3
:100130006B0301086B0301080000000000000000D1
:100140006B0301086B0301086B030108000000004A
:10015000000000000000000000000000000000009F
:1001600000000000000000006B0301086B030108A1
:100170006B03010800000000000000000000000008
:10018000000000006B030108DFF80CD000F09CFCBD
:1001900000480047314D0108F099002080F309889C
:1001A0007047EFF309807047684680F30988044878
:1001B0000078C00714BF0220032080F31488704722
:1001C00010600108DFF818C0EFF305831B0618BFA5
:1001D0006047EFF31483DB0708BF604700DF704719
:1001E0006D4E0108DFF818C0EFF305831B0618BF3A
:1001F0006047EFF31483DB0708BF604700DF7047F9
:1002000015500108EFF30980816911F8021C01B152
:1002100042E010B590E80F10E047BDE81040EFF362
:10022000098C254B93E80600914232D041B91EF06B
:10023000100F16D12149086820F00100086010E075
:100240000CB41EF0100F06BF2CED108A03230123FF
:1002500081F826302CE9F00FC1F82CC005F00EF91A
:100260000CBC1A60D2F82CC0BCE8F00F92F8263013
:1002700013F0020F1ABFBCEC108A6FF0120E6FF071
:10028000020E8CF3098813F0010F08BF704792F833
:100290002500CCF80000704710B5094A1268914259
:1002A00009D8084C54F8214090E80F10A047EFF30C
:1002B000098C8CE80F0010BDDC04002034EF00E056
:1002C000440B0108440B010810B504F08BFFBDE896
:1002D0001040194B93E80600914208BF70470CB4D8
:1002E000EFF3098C1EF0100F06BF2CED108A0223CD
:1002F000002381F826302CE9F00FC1F82CC005F05E
:10030000BDF80CBC1A60D2F82CC0BCE8F00F92F813
:10031000263013F0020F1ABFBCEC108A6FF0120ED9
:100320006FF0020E8CF3098813F0010F1CBF92F8D6
:100330002530CCF800307047DC04002010B505F003
:100340006DF9C4E710B504F02BFD05F067F9BEE7C1
:100350000648804706480047FEE7FEE7FEE7FEE75F
:10036000FEE7FEE7FEE7FEE7FEE7FEE7AD42010837
:1003700089010108DFED460A60EE200AF5EEC00AA9
:10038000F1EE10FA38BFF1EE600ABDEEE01ADFF8C8
:1003900008C1F7EE004AB0EE085AB8EEC11AB5EE41
:1003A000C00A70EEC10A9FED3B1A20EE811AFCEEE6
:1003B000C10A10EE902AC2F3080200EE902A02F160
:1003C00080030CEB8202F8EE600AD2ED001AC3F350
:1003D00008030CEB8303F1EE612A71EE600AD2EDA3
:1003E000011A93ED001A93ED012AF1EE613A74EED1
:1003F000E01A32EE413A61EE811A40EE821A32EE94
:10040000A32ADFED261A22EE214AB0EE002A42EEA0
:10041000223A02EE434A23EE053A03EEE13A00EEB9
:10042000843A34EEE04A20EE833A02EEA13A00EE3E
:10043000831A81ED001A92ED001AD2ED013AD3ED44
:10044000002A24EE014A93ED013A00EEA34A32EE6F
:10045000834A73EEC13A02EE223A24EE214A02EEBA
:10046000634A63EE853A43EE613A40EE843A20EE09
:10047000A32A02EEA12A00EE821AF1EE10FA80ED14
:10048000001A3CBFB1EE410A80ED000A704700003F
:10049000610B363B0000004428600108DB0F493C3B
:1004A000202A06DBCB17203A41FA02F043EAE07338
:1004B00006E041FA02F3D040C2F120029140084325
:1004C0001946704740EA01039B0703D009E008C9B9
:1004D000121F08C0042AFAD203E011F8013B00F809
:1004E000013B521EF9D270472DE9FE4F804681EA4A
:1004F0000300C00F0C46009021F0004123F000459E
:10050000B8EB0200A94105D24046214690461C4660
:100510000B46024623F00040104347D0270DC7F397
:100520000A00C3F30A510290401A019040286BDA86
:10053000C3F3130040F4801B0098924620B10023BF
:10054000D2EB030A63EB0B0B01985946C0F1400252
:10055000504600F071F906460D4650465946019A3C
:10056000FFF79EFF10EB08006141002487EA11525B
:1005700084EAE7731A4340D0009A62B3019A012AD1
:100580004FEA075215DC001B61EB02014FF00042FD
:1005900002EA0752CDE90042001C41F580113246C3
:1005A0002B4600F0AEF903B0BDE8F08F404621467F
:1005B000F9E7001B61EB0201001C41F580130018F4
:1005C0005B412018A2F5001747EB030140EAD57004
:1005D000B6196D4111E06D084FEA360645EAC0755F
:1005E0004FEA0752001B61EB0201001C41F580112C
:1005F00049084FEA30000019514132462B4603B0FA
:10060000BDE8F04F00F06EB90098012240000023D1
:10061000D0EB020263EBE073009821464FEAE074EE
:10062000B8EB000061EB0401E9E783F000435BE70E
:1006300081F0004158E72DE9FE4F81EA030404F000
:10064000004421F0004100944FF0000B23F00043E0
:1006500050EA01045ED052EA03045BD0C3F30A54AB
:10066000C1F30A552C44A4F2F3340194A0FB0254C4
:10067000C1F3130141F48011C3F3130343F4801356
:1006800001FB024400FB034E840A970A44EA8154AA
:1006900047EA8357A4FB076802958D0A05FB078587
:1006A0004FEA932C04FB0C542705029D4FEA065891
:1006B00047EA1637B5EB08056EEB070C870E920E6E
:1006C00047EA811742EA8312A7FB0201B6EB0B014E
:1006D00064EB00042B0D43EA0C335E1844EB1C5012
:1006E000DA465146E7FB0201C5F313044FEA0B3328
:1006F00043EA14534FEA0432019C43EA0603A4F18F
:100700000C040294009CCDE900B400F0FAF803B0A8
:10071000BDE8F08F00200146F9E70EB5C10F80EA71
:10072000E0700844CA07002140F233438DE80E0010
:100730000A460B4600F0E5F803B000BD70B5C1F302
:100740000A5201F000450024C1F3130140F2FF33C7
:1007500041F480119A4201DA002070BD40F2334327
:100760009A42A2F2334203DC524200F074F800E0F5
:1007700090402C43F1D0404270BD00F0004230F078
:1007800000400AD0C10D01F56071C0F3160042EAC5
:100790000151C208400711437047002001467047CD
:1007A00030B5041E71F1000404DB4FF000444042F8
:1007B00064EB0101141E73F1000405DB1C464FF0CD
:1007C0000043524263EB04038B4208BF824230BDB8
:1007D00030B5041E71F1000404DB4FF000444042C8
:1007E00064EB0101141E73F1000405DB1C464FF09D
:1007F0000043524263EB0403994208BF904230BD6C
:1008000001F0004330B421F0004150EA010206D06B
:100810000A0DA2F56072C1F31301002A02DC30BC9C
:1008200000207047440F44EAC104C100E01830BC06
:1008300000EBC25000F01FB8202A04DB203A00FA77
:1008400002F1002070479140C2F1200320FA03F327
:10085000194390407047202A04DB203A21FA02F025
:100860000021704721FA02F3D040C2F120029140EA
:100870000843194670470029A8BF7047401C49002B
:1008800008BF20F00100704710B4B0FA80FC00FAF5
:100890000CF050EA010404BF10BC704749B1CCF120
:1008A000200421FA04F411FA0CF118BF01212143AC
:1008B0000843A3EB0C01CB1D4FEA00614FEA102067
:1008C00042BF002010BC704700EBC3501044002909
:1008D000A4BF10BC7047401C490008BF20F00100B5
:1008E00010BC704710B5141E73F1000408DA401CE8
:1008F00041F1000192185B411A4301D120F001003F
:1009000010BD2DE9F04D92469B4611B1B1FA81F22E
:1009100002E0B0FA80F220329046FFF78DFF0446E5
:100920000F4640EA0A0041EA0B0153465A46084383
:1009300013D0114653EA010019D0C8F140025046C5
:10094000FFF789FF05460E46504659464246FFF7D7
:1009500073FF084305D0012004E020463946BDE876
:10096000F08D0020054346EAE0762C4337430A9891
:100970006305E40AA0EB08000022FD0A44EA47549C
:100980000A3002D500200146E9E701051019694146
:10099000DDE9084500196941BDE8F04DA2E72DE900
:1009A000F04D00231A461B1A8A4103DB0020014642
:1009B000BDE8F08DC1F30A52C1F3130141F4801573
:1009C0004FF0000BD10702D100186D41521E0027D5
:1009D000044640F2FF11384601EB620A3E4680466B
:1009E000024600204FF48011FFF735FFC219714114
:1009F000BB1846EB0100B4EB030C75EB000C04D301
:100A0000E41A65EB000517460E46241908F10100AB
:100A10006D4180463428E3DDF91946EB0600091BD9
:100A2000A84103D24FF0FF32134601E000221346E3
:100A30001BEB070046EB0A51BDE8F04DFFF752BF34
:100A40002DE9F041054621F000400C46284309D02D
:100A5000C4F30A5040F23341884205DD284621465E
:100A6000BDE8F0812846FBE740F2FE31884210DC09
:100A70000CDB4FEA043040EA155050EA053105D04E
:100A8000104804F0004101430020E9E7002001463E
:100A9000E6E7A0F233404642C6F14002284621462E
:100AA000FFF7CAFE07468846284621463246FFF72A
:100AB000D2FE43463A46FFF715FF3246BDE8F04105
:100AC000FFF7BABE0000F03F064C074D06E0E068B5
:100AD00040F0010394E8070098471034AC42F6D385
:100AE000FFF756FB306801086068010870B58C1884
:100AF00010F8015B15F0070301D110F8013B2A1132
:100B000006D110F8012B03E010F8016B01F8016B1E
:100B10005B1EF9D12B0705D40023521E0DD401F81A
:100B2000013BFAE710F8013BCB1A921C03E013F8E3
:100B3000015B01F8015B521EF9D5A142D8D3002018
:100B400070BD00000000000040F24D1CC1F2000C1E
:100B5000604740F2012CC1F2000C604710B54FF025
:100B6000A04000F00CFB4FF0A04000F09BF979484A
:100B700000F005FB774800F095F94FF4807002F023
:100B80009FFF0121080702F0B3FF00F0B3F900F066
:100B900055F9714800F040F9704800F0F5FA7048D6
:100BA00000F04FFA01214FF0A04000F0F8FA0121C7
:100BB000684800F0F4FA00214FF0A04000F0C8FAB5
:100BC0004FF0A04000F0CCFA0021624800F0C0FADB
:100BD000604800F0C5FA00BF4FF0A04000F09EF959
:100BE0000028F9D14FF0A04000F0A2F95D4908605B
:100BF00000BF584800F092F90028FAD1554800F09B
:100C000097F959490860012053490860002048605D
:100C10004FF4004088600220C8600A200874C006B3
:100C200000F0C8F800204D49086048608860C8603E
:100C300008614FF4805048610020886103200877E4
:100C40004FF0A04000F09CF94449424800F098F968
:100C50000323012202214FF0A04000F0FCF90323FE
:100C6000022219464FF0A04000F0F5F903231A467E
:100C700004214FF0A04000F0EEF9032301220221ED
:100C8000344800F0E8F9032302221946314800F005
:100C9000E2F903231A4604212E4800F0DCF9002073
:100CA0002F49086040204860042008720120C86075
:100CB0000861486188614FF0A04000F0AAF9032262
:100CC00001214FF0A04000F07BF92549214800F0B8
:100CD000A0F9032201211F4800F072F940214FF0D2
:100CE000A04000F05AF8012240214FF0A04000F04F
:100CF0003DF9012202211D4801F0A6F901214FF022
:100D0000A04000F090F801214FF0A04000F047F81B
:100D10000121104800F043F800BF01214FF0A0402E
:100D200000F00AF90028F8D000BF0121094800F0BE
:100D300003F90028F9D001210C4801F0BDF84FF06B
:100D4000A04000F017FA122003F03DFE0B2003F044
:100D50003AFE10BD0001005038950020FC940020A0
:100D60001C950020980400209C04002008000240EC
:100D700010B540214FF0A04000F0E7F850B14FF01F
:100D8000A04000F0F2F9FFF7DFFE40214FF0A04055
:100D900000F003F810BD016070470160704721B199
:100DA000826842F00102826003E0826842F002023F
:100DB0008260704710B50022B0F1A04F02D0124BF4
:100DC000984204D1114B1A68114B1A4003E0114BA1
:100DD0001A680F4B1A40D1E9003423438C6823432F
:100DE000CC6843EA04330C7C43EA04231A43B0F191
:100DF000A04F02D0044B984202D1044B1A6001E08C
:100E0000044B1A6010BD00000001005008030050A0
:100E1000E010FCFF08070050002101604160816084
:100E2000C1600174704721B1C26842F00102C26022
:100E300003E0C26822F00102C260704710B50121D0
:100E4000084602F055FE0021124801F035F811481D
:100E500001F03EF810481149086011484860002030
:100E600088603020888100200861802048618000EF
:100E700088618000C861202008624FF440504862B9
:100E800000208862034801F0E8F80121014801F0E0
:100E900013F810BD080002400C0300504C950020D0
:100EA0003C94002010B50446B4F1A04F02D00E4887
:100EB000844209D10121080702F02AFE00214FF0E7
:100EC000805002F025FE0EE00848844202D0084817
:100ED000844208D10121480702F01AFE00214FF098
:100EE000005002F015FE10BD00010050000400503B
:100EF0000005005010B50121480402F0F9FDFF2063
:100F000005490860032008710020C8714FF0904027
:100F100001F086FA10BD0000A00400200146002068
:100F20008A6802F000420AB1012000E00020704708
:100F30000146D1F8B40070470246002013680B4008
:100F40000BB1012000E00020704730B502460020C0
:100F50000023002415680D40ABB255680D40ACB2BB
:100F600013B10CB1012000E0002030BD1AB143687C
:100F70000B43436002E043688B43436070470000CB
:100F800010B502460020D0680C4B1840D1E900345F
:100F900023438C682343CC6823430C6923434C6967
:100FA00023438C6923431843D060106B20F00F005B
:100FB0000B7F5B1E1843106310BD000007C0FFFDD0
:100FC00030B50023092913DDA1F10A0404EB44051F
:100FD000072404FA05F384699C4384618469A1F1C0
:100FE0000A0505EB450502FA05F52C4384610FE07F
:100FF0004C1E04EB4405382404FA05F344699C4371
:101000004461446901EB410502FA05F52C43446152
:1010100030BD10B50022C26C00220B7A5B1E0C683A
:1010200023434C682343CC6843EA04230C6943EA16
:1010300084338C8A43EA04530C7E43EA8462C2649C
:1010400010BD00210160416001210172C160016198
:10105000416181617047F0B50C461D4600BF00BF7D
:10106000052A0FDA016B02EB420677001F2606FA0B
:1010700007F3994302EB4206760004FA06F319439C
:1010800001633CE00A2A11DA416B561F06EB460663
:1010900077001F2606FA07F39943561F06EB46060C
:1010A000760004FA06F31943416328E00F2A13DAA5
:1010B000816BA2F10A0606EB460677001F2606FAA8
:1010C00007F39943A2F10A0606EB4606760004FAF6
:1010D00006F31943816312E0C16BA2F10F0606EB20
:1010E000460677001F2606FA07F39943A2F10F067A
:1010F00006EB4606760004FA06F31943C163092C91
:1011000014DD8169A4F10A0606EB4607072606FAF4
:1011100007F386699E4386618669A4F10A0707EB97
:10112000470705FA07F73E43866110E04169661EEE
:1011300006EB4607382606FA07F346699E434661E2
:10114000466904EB440705FA07F73E434661F0BDE4
:10115000826822F08042826082680A43826070471F
:10116000816841F0004181607047816841F004016D
:1011700081607047816841F0080181607047816833
:1011800041F0100181607047002101604160816081
:10119000C16001614161816101210177704782680D
:1011A00022F04052826021B1826842F08052826017
:1011B00003E0826842F00052826070471CB56846C6
:1011C00001F09CF90121880402F092FC02200949F7
:1011D000088001208DF8040000208DF80600022010
:1011E0008DF80500009069460248283801F018F98A
:1011F0001CBD00002804004810B5044600F0F4F8B7
:10120000012012490860032010491431086020466B
:1012100000F0C6F808B1032010BD0C48006840F08B
:1012200060000A490860002000F024F900F008F985
:1012300008B10120F0E70648B0F9021000237F2230
:10124000184600F045F80020E6E700000064004082
:10125000280500201D4A02EB0112126802F0040268
:101260005AB900224273194A02EB0112126840F285
:10127000FF7303EA525202600AE001224273134AEA
:1012800002EB011212686FF0604303EAD2020260BF
:101290000E4A02EB0112126802F0020212B9002299
:1012A000827301E001228273084A02EB0112526844
:1012B00002F00F020273054A02EB011292684260CB
:1012C000024A02EB0112D36883607047B0650040A8
:1012D00030B5324C246844F00104304D2C6003F0EA
:1012E00001040CBB2C1D246801258540AC432B4D0B
:1012F0002D1D2C60294C0C34256801248440A54305
:10130000264C0C3425604C0103F0020544EAC50468
:1013100044EA4255214C403444F830504FF0FF35F8
:1013200004EBC00465601FE01C4C241D25680124EB
:101330008440A543194C241D2560184C0C342468A6
:10134000012585402C43154D0C352C60042404EBFD
:10135000C10503F002042543104C403444F83050DA
:10136000D50004EBC00465600C4C143425680124DE
:101370008440A543094C14342560084C1C3425686E
:10138000012484402543054C1C342560034C24680B
:1013900024F00104014D2C6030BD000000660040C7
:1013A00070B504460E48844209D88000B0FBF4F5BD
:1013B0002B46042205210C2000F0ECF80EE0094831
:1013C000844209D88000B0FBF4F52B460122114677
:1013D000072000F0DFF801E0032070BD0020FCE7EB
:1013E00020A1070040420F001CB50121480402F073
:1013F0007FFB0121480602F09BFB4FF4C050009098
:1014000002208DF8040000208DF8060003208DF8DE
:10141000050069464FF0904001F002F809220B21C7
:10142000D00601F048F809220C21D00601F043F85B
:10143000132003F0BBFA142003F0B8FA00201CBDFF
:1014400000220B48006820F00100094B186000BF23
:101450000748001D006800F00101521CB2F5FA7F38
:1014600001DB012070470029F2D10020FAE70000DB
:101470000064004001460748006820F04040054AEB
:1014800010601046006801F040421043014A1060AD
:10149000002070471C64004010B502463B480068BD
:1014A00000F0806008B100210FE03848006800F0CB
:1014B000006008B1012108E03448006800F0805065
:1014C00008B1022101E0042010BD0023304800EBE8
:1014D00001100360507B58B92D4800EB01100068E3
:1014E000138840EA43532A4800EB011003600CE0E4
:1014F000274800EB011000680424136804EBC303C1
:101500001843234B03EB01131860907B012809D18A
:101510001F4800EB0110006840F002031C4800EB7C
:10152000011003601A4800EB0110536883601848EB
:1015300000EB01109368C360154800EB0110406890
:1015400020F00F03124800EB01104360104800EB3D
:1015500001104068137B03F00F0318430C4B03EB9F
:101560000113586009480C30006840F00100074B37
:101570000C331860064800EB0110006840F00103CE
:10158000034800EB0110036000209DE70864004061
:101590008065004030B50E4C24680E4D2C400C4D3B
:1015A0002C60541EA407A5094C1E04F0070445EA4C
:1015B0000455441E04F00F0445EA04445D1EC5F3BF
:1015C00009052C43024D2D682C43014D2C6030BD84
:1015D0001C64004000FC80FC00211948DFF864C056
:1015E00000DF2CE002211648DFF85CC000DF044673
:1015F000012C0CD006E0154803F041FB05462846B7
:1016000000F02AF8114803F01DFB0028F3D0104821
:101610000068142804DA0E480068401C0C49086071
:101620000B48006814280ADB0A4803F00BFB30B9AA
:10163000084803F024FB05462846FFF72DFFD1E7B5
:1016400060040020FD5301083D5401087804002087
:1016500088040020680400202DE9F84304464FF078
:1016600001094C48B0F90200216800F50070814280
:1016700019D14848B0F86000042813D1207B08280D
:101680000AD145496068096808604449A06809684A
:101690000860434803F044FB207B002877D1404892
:1016A00003F03EFB73E03B49B1F902102068884229
:1016B0006DD1207B03286ADB6579102D00DD00BF2A
:1016C0002079022802D02079032840D1DFF8D48085
:1016D000207B801E461066B1002707E008EB05005E
:1016E000C05D022801D04FF000097F1CB742F5DB36
:1016F00001E04FF00009B9F1000F19D0254800EBC7
:101700004508002705E0B81C211D085C08F8010BFE
:101710007F1CB7EB460FF6DB012D09D11D48B0F950
:10172000021000237F221846FFF7D2FD00F026FEAC
:101730002068FF282BD02079022828D10020009093
:10174000637909F0FF01022200F02EF81FE02079F2
:1017500001281CD12068FF2819D0A6790BE00D487C
:1017600000EB4500EBB2012200210090062000F0C2
:101770001BF8ED1CB61F062EF1DC064800EB4500F9
:10178000EBB20090F0B20122002100F00DF8BDE8AC
:10179000F8830000280500203C00002034000020D1
:1017A0000C000020900100202DE9FF4706468846E6
:1017B00014461F46DDF83090214803F04CFA08B972
:1017C000062E03DD002004B0BDE8F0871D48B0F907
:1017D000020000F58070009000208DF80D00022CB2
:1017E00003D103208DF80C0005E0012C03D1B01CBF
:1017F000C0B28DF80C008DF804408DF80570022CF5
:1018000002D18DF806800AE0002506E019F80520CF
:10181000A81C01A90A54681C85B2B542F6DB502FFA
:1018200000DD00BF064803F00DFA20B96946044800
:1018300003F031FA02E06846FFF72EFE0120C2E70E
:1018400068040020280500207FB504460D46114895
:1018500003F001FA00B17FBD0F48B0F9020000F5B6
:101860008070009000208DF80D0006208DF80C008F
:1018700005208DF80400E1B28DF8051000208DF8E8
:101880000E002968CDF806106846FFF705FE00BF78
:10189000E1E7000068040020280500201FB5154876
:1018A00003F0D9F900B11FBD1348B0F9020000F5EB
:1018B0004070009000208DF80D0008208DF80C007D
:1018C00000208DF80E000D480068006801900C495A
:1018D000096809680291074803F0B4F920B969461C
:1018E000044803F0D8F902E06846FFF7D5FD00BFD1
:1018F000D9E70000680400202805002038000020F7
:101900002800002010B51A48B0F96000194909688C
:10191000884226D000201649A1F862000846B0F897
:101920006000032804D00846B0F86000042816D1EF
:10193000114800680068114909680968884207DB96
:101940000D48006800680E4909680968884206DD8C
:1019500000200A490968086009490968086003F01D
:1019600021FA0348B0F960000249086010BD000088
:1019700028050020440400203800002048000020F2
:101980004C00002001200E49B1F95210B1F5967FAC
:1019900011DA0C490988491C0A4A11801146098844
:1019A0000A2906DB0649B1F9081041F01001044A82
:1019B0001181002002E00021024A118070470000DE
:1019C00028050020D204002001201D49B1F90A1089
:1019D00040F65432914212DD00201A4909786429F8
:1019E00005DA18490978491C164A117026E014498D
:1019F000B1F9081041F00201114A11811EE01049AD
:101A0000B1F90A10B1F5E16F12DA00200E49097838
:101A1000642905DA0C490978491C0B4A11700DE05C
:101A20000749B1F9081041F00401054A118105E0A8
:101A300001200021044A1170024A11707047000011
:101A400028050020C8040020C904002001200E49F8
:101A5000B1F90C10B1F5487F11DD0C490978491C2A
:101A60000A4A1170114609780A2906DB0649B1F9BC
:101A7000081041F00801044A1181002002E0002111
:101A8000024A11707047000028050020D004002091
:101A900070B52DED088B04460D4694ED000A20EE3E
:101AA000000AF0EE408A95ED000A20EE000AB0EE42
:101AB000409A38EE890AB0EE408AB7EE000AB4EEDA
:101AC000C08AF1EE10FA31DD88EE880AF0EE408A25
:101AD00089EE080AB0EE409A18EE900AFEF74DFE25
:101AE00041EC1B0BB0EE4B0AF0EE6B0A03F00CF866
:101AF000B0EE40AAF0EE60AA51EC1A0BFEF780FEA1
:101B0000206019EE100AFEF738FE41EC1B0BB0EE18
:101B10004B0AF0EE6B0A02F0F7FFB0EE40AAF0EECF
:101B200060AA51EC1A0BFEF76BFE2860BDEC088B27
:101B300070BD000000200149088170472805002081
:101B40002DE9F041002400254FF0010840480088AD
:101B500020F400703E490880002240214FF0A04050
:101B6000FFF704FA3B48006887B200203949143176
:101B70000860091D0860091D086040F6CC40354921
:101B8000086034482430006840F400403149243172
:101B90000860002633E000BF40214FF0A040FFF76F
:101BA000CBF90028F8D040214FF0A040FFF7F3F820
:101BB0002948006804444FF0A040D0F88400044451
:101BC00025480830006804444FF0A040D0F88C004D
:101BD00004444FF0A040D0F8800105444FF0A040ED
:101BE000D0F8840105444FF0A040D0F888010544A6
:101BF0004FF0A040D0F88C010544701C86B2FF2E37
:101C0000C9DD2046E11704EB91518912134A116096
:101C10002846E91705EB91518912114A11600C48C9
:101C2000008840F400700A4908800A48243000689F
:101C300020F400400749243108600648076001226B
:101C400040214FF0A040FFF791F94046BDE8F081F8
:101C500014040048202C0140800000502000002087
:101C60002400002010B52DED068B9FED430AF0EE09
:101C7000408A4248006890ED000AB8EEC00ADFEDE5
:101C8000400A80EE201A9FED3F0A21EE000AF3EE93
:101C9000040A20EE200ADFED3C0A20EE200ADFEDE8
:101CA0003B0A80EE201AB0EE418A394890ED000AD6
:101CB00030EE480A10EE101A0846FEF75EFD41ECC1
:101CC0001A0BB0EE4A0AF0EE6A0A02F089FEB0EE94
:101CD000409AF0EE609A9FED2F0B53EC102B51ECD5
:101CE000190BFEF75DFD05D8294880ED008ABDEC93
:101CF000068B10BD264890ED000AB4EEC80AF1EE3E
:101D000010FA08D290ED000AF2EE040A30EE200A32
:101D100080ED000A08E01E4890ED000AF2EE040A89
:101D200030EE600A80ED000A194890ED000A1B4869
:101D3000D0ED000AB4EEE00AF1EE10FA05DD90ED08
:101D4000000A134880ED000A13E0114890ED000AE4
:101D50001248D0ED000AF1EE600AB4EEE00AF1EEAE
:101D600010FA06D290ED000AB1EE400A084880ED64
:101D7000000A00BFBBE7000000409C462C0000208A
:101D800000007A448FC2753C0000804533335340D5
:101D90003804002000000000000024401C04002043
:101DA0002DE9F047002500260027A846A946AA46A7
:101DB000022000F033F900286AD000242AE004EB66
:101DC0004400344951F8200005EB104504EB440071
:101DD000401C51F8200007EB104704EB4400801C26
:101DE00051F8200006EB104604EB440031F82000C7
:101DF00080B2824404EB4400401C31F8200080B2E1
:101E0000814404EB4400801C31F8200080B28044FF
:101E1000601CC4B2102CD2DB40F213107843C00B0C
:101E200000B21D49A1F85200281100F047FC1A49E0
:101E30008881301145F6D0414843C01300B216499D
:101E400048814FF40060C0EB281040F25F514843D6
:101E5000400A00B21049A1F854004FF40060C0EBF2
:101E6000291040F25F514843400A00B20A49A1F8E4
:101E700056004FF40060C0EB2A1040F25F51484317
:101E8000400A00B20449A1F85800022000F006F808
:101E9000BDE8F0873C9400202805002000F0805128
:101EA00011B10349086001E0024948607047000031
:101EB000040402400000024021B1026842F0010225
:101EC000026004E002684FF6FE731A400260704739
:101ED00001684FF6FE72114001600021016041600F
:101EE0008160C1604B49884208D14A490839496834
:101EF00041F00F01474A083A51608AE045491431E0
:101F0000884208D143490839496841F0F001414A03
:101F1000083A51607DE03F492831884208D13D4967
:101F20000839496841F470613A4A083A516070E0F2
:101F300038493C31884208D136490839496841F46A
:101F40007041344A083A516063E032495031884266
:101F500008D130490839496841F470212D4A083ABE
:101F6000516056E02B496431884208D1294908392B
:101F7000496841F47001274A083A516049E025490F
:101F80007831884208D123490839496841F07061A5
:101F9000204A083A51603CE01F49884206D1011F9F
:101FA000096841F00F01021F116032E01A49143133
:101FB000884208D11849091F096841F0F001164A02
:101FC000121F116025E014492831884208D11249B6
:101FD000091F096841F470610F4A121F116018E06F
:101FE0000D493C31884208D10B49091F096841F469
:101FF0007041094A121F11600BE0074950318842B5
:1020000007D10549091F096841F47021024A121FCE
:102010001160704708000240080402400146002099
:10202000002201F0805313B1054B1A6801E0054B03
:102030001A6802EA01030BB1012000E0002070479A
:1020400000040240000002401AB103680B43036021
:1020500002E003688B430360704710B500220268FA
:1020600047F6F0739A430C6A8B6823430C69234349
:102070004C6923438C692343CC6923434C6A234333
:102080008C6A23431A4302608B8943600B68836028
:102090004B68C36010BD000030B5044604254FF402
:1020A000302000F077F80546042D16D10C48006961
:1020B00040F002000A49086108464461006940F0A6
:1020C000400008614FF4302000F064F805460448F1
:1020D000006920F0020002490861284630BD000076
:1020E0000020024004200B49C96801F0010109B138
:1020F00001200EE00749C96801F0100109B1022072
:1021000007E00449C96801F0040109B1032000E0B7
:1021100004207047002002400348006940F080001E
:1021200001490861704700000020024070B5044674
:102130000D4604264FF4302000F02CF80646042EFD
:1021400011D10A48006940F0010008490861258062
:102150004FF4302000F01EF806460448006920F0D5
:10216000010002490861304670BD000000200240B5
:102170000548006900F0800020B104480249486029
:102180000348486070470000002002402301674573
:10219000AB89EFCD00B502460423FFF7A3FF03464A
:1021A00003E0FFF79FFF0346521E012B01D1002AD7
:1021B000F7D102B90523184600BD000000B59022F2
:1021C0001349144800F0CCF814221349134800F0C6
:1021D000C7F80020124909680860124909680860B8
:1021E0001148006800681149096808600020084922
:1021F000A1F86200088388828883C88308810C481C
:10220000008840F480700A490880012000BD000069
:1022100028050020008003086806002000900308BD
:102220002C00002034000020380000203C0000205A
:102230001404004870B50124224823490860443042
:10224000224908604038224908604430214908602A
:102250004038214908604430204908603E38204910
:10226000086058301F490860001D1F4908603E384B
:102270001E490860FFF7A2FF12482038B0F9060097
:102280001B49B1F90610884214D00E482038408806
:1022900085B24FF4907216490A482038FEF712F9B9
:1022A00028B20849203948800020088300F066F8E9
:1022B000002400BF2022034980310E48FEF702F9B6
:1022C000204670BD48050020280000202C0000207A
:1022D0003000002034000020380000203C000020A6
:1022E00044000020480000204C0000204000002056
:1022F000500000200805002001B500200099009A38
:1023000052080092CAB21AB1012202EB112000E079
:10231000080A08BD2DE9F04705460E464FF00008B3
:102320000427A946FFF724FF3046FFF7E5FF804664
:1023300000240DE04FF4806101FB0490FFF7ACFE38
:102340000746042F02D00020BDE8F087601CC4B20D
:10235000444501D2042FEDD0FFF7DEFE0120F3E764
:1023600010B503460C46002104E033F8110024F8B0
:102370001100491C9142F8D3012010BD10B572B66E
:1023800090220549054800F01DF810B962B60020FA
:1023900010BD62B60120FBE728050020008003087D
:1023A00010B572B614220549054800F00BF810B9B3
:1023B00062B6002010BD62B60120FBE7680600206F
:1023C000009003082DE9F0478046894615464746A8
:1023D0004FF0040A29464046FFF79CFF10B9002041
:1023E000BDE8F087FFF7C4FE4C46002612E02188C6
:1023F0003846FFF79BFE8246BAF1040F01D0002059
:10240000EEE738882188884201D00020E8E7BF1C29
:10241000A41C761CAE42EAD3FFF77EFE0120DFE764
:10242000F0B50A46002100240025002300BF3FE04C
:10243000012606FA01F4166806EA0405A54236D11B
:102440001679012E02D01679022E18D186684FEA2D
:10245000410C032707FA0CF7BE43866056794F00FC
:10246000BE4087683E438660868801278F40BE4312
:102470008680878896798E40B6B237438780066813
:102480004FEA410C032707FA0CF7BE4306601679A2
:102490004F00BE4007683E430660C3684F000326F6
:1024A000BE40B343D6794F00BE403343C360491C9E
:1024B0001029BDD3F0BDF0B5002300244D07ED0E6B
:1024C00002FA05F3CE1000F1200555F826504E070C
:1024D000F70E0F26BE40B543CF1000F1200646F898
:1024E0002750CE1000F1200555F8265045EA030488
:1024F000CE1000F1200545F82640F0BD4FF6FF71E3
:102500000160002101710221417100218171C171BD
:102510007047000070B52DED088B9FED560AB0EEA8
:10252000408A9FED540AF0EE408A534804684FF009
:10253000A040D0F8840004444F48083000680444A8
:102540004FF0A040D0F88C000444A4104B4805681C
:102550004FF0A040D0F8840105444FF0A040D0F8DF
:102560008801054445480C3000680544AD104448D6
:102570000068001B00EE100AB8EEC00AB0EE408AF8
:1025800040480068401B00EE100AB8EEC00AF0EEAA
:10259000408A38EE280AB1EE400AB0EE409A38EE92
:1025A000680ADFED390A20EE200AF0EE409A37483B
:1025B000008800EE100AB8EE400ADFED350A20EE82
:1025C000200ADFED340A80EE201AB0EE41AA32492B
:1025D0003248B0EE4A0AFDF7CDFE2F4890ED000AD2
:1025E00029EE000A2D48D0ED000A09EEA00A2C4879
:1025F00080ED000A294890ED000A29EE000A2648DD
:10260000D0ED000A09EEE00A264880ED000A2448D1
:1026100090ED000ADFED240A60EE200A9FED231AF8
:1026200080EE810AB3EE041AC0EE010A9FED201A73
:1026300080EE810ADFED1F0A20EE200A10EE106AFC
:102640003046FEF79AF841EC1B0BB0EE4B0AF0EE69
:102650006B0A02F0E9F9B0EE40AAF0EE60AA51EC84
:102660001A0BFEF76BF8144909680860BDEC088B7B
:1026700070BD00000000000080000050800100508C
:1026800020000020240000203ACD133F1400002039
:102690000000B443000080472404002020040020F0
:1026A000B0040020B404002000007A448FC2753CBE
:1026B00000008045333353402800002070B50446A5
:1026C000002100BF40F6E4406043031340F6E440BD
:1026D000C01A40F2CC65684390FBF3F23348344DA6
:1026E0002D6850F8250090421ADD3148006878289E
:1026F00037DA2F48017810E02C4850F8210090423A
:1027000009DD2A4D481C55F82000904203DA481C88
:10271000274D286003E0481CC1B27729ECDB20E09C
:102720002248234D2D6850F82500904219DA2048A0
:102730000068002815DB1E4801780FE01B4850F8A0
:102740002100904208DA481E184D55F820009042AA
:1027500002DD1748016003E0481EC1B20029EDDC2C
:1027600000BF13480068B0B111480068401E0F4D0B
:1027700055F820000E4E366855F82650401B0B4D7C
:102780000B4E366855F82650551B05EB85056D0038
:1027900095FBF0F300E0002305480088143800EBB7
:1027A0008000C3EB400000B270BD0000300200208A
:1027B000CC0400201CB50121880401F099F9684679
:1027C000FFF79CFE0F48008840F480700D49088098
:1027D0000846008840F40070088001208DF804004D
:1027E00000208DF8060002208DF805004FF440709F
:1027F000009000208DF80700694602481438FFF762
:102800000FFE1CBD14040048F0EE401AB0EE610A41
:10281000F4EEC11AF1EE10FA02D2B0EE410A06E06F
:10282000F4EEE01AF1EE10FA01DDB0EE600A704746
:10283000F0EE400A017819B901210170C0ED020AD9
:1028400090ED020A90ED031AD0ED021A70EEE11A33
:1028500001EE210A80ED020A90ED020A70470000A5
:102860000023037019B312B382804180838801EE84
:10287000103AB8EE411AF0EE001A21EE211ADFEDFF
:102880000E1A21EE211AF7EE001AC1EE810A4388D2
:1028900001EE103AB8EE411AF7EE001A81EE810A05
:1028A00030EE801AC0EE011AC0ED031A03E0B7EE55
:1028B000001A80ED031A7047DC0F494010B503F091
:1028C000CFF83248808A012802D130480089D8B137
:1028D0002F480068022804DC2D480068401C2C4961
:1028E00008602B48006802280DD1002029490860A3
:1028F00002F058FA02202849088000202349A1F854
:10290000020100F0FFFB10BD22480068022804DC31
:1029100020480068401C1F4908601E4800680228C3
:102920000FD100201A49086002F03CFA02201A492F
:102930001039086001201549A1F8020100F0F8FBE8
:10294000E1E71248B0F96000012818D0022811D040
:10295000032808D0042815D100F006FF00F0C2FCBF
:1029600001F05CFB0FE000F0EBFC00F0BBFC01F0C1
:1029700055FB08E001F0DAFB01F050FB00BFFFF768
:1029800071F900E000BF00BF00BFBCE728050020D0
:10299000540400205004002028040048F0B52DED18
:1029A000108B83B005460E46174605EBC50148005F
:1029B00000EBD071491000EE101AB8EEC00AB0EE6C
:1029C000408A3004A7490988B0FBF1F4B4F5803F90
:1029D00002D94FF4803000E02046044600EE104A51
:1029E000B8EE400ADFEDA00A20EE200ADFED9F0AD4
:1029F00080EE201AB0EE419A01A902A8B0EE490A71
:102A0000FDF7B8FC002F73D09DED020A28EE000AF6
:102A1000F0EE408A38EE880AF0EE408A9DED010A19
:102A2000DFED930A20EE200A10EE101A0846FDF79B
:102A3000A4FE41EC1C0B0298FDF79FFE41EC1E0B1F
:102A40009FED8C0B53EC102BFDF7F5FD41EC1D0BAE
:102A500053EC1C2BFDF748FD41EC1A0B18EE100A45
:102A6000FDF78BFE41EC1B0B53EC1A2BFDF7E3FD3E
:102A700041EC190BFDF7C4FE0FEE900A3FEE880AF9
:102A8000F0EE40FA9DED010ADFED790A20EE200A12
:102A900010EE101A0846FDF770FE41EC1B0B029871
:102AA000FDF76BFE41EC1E0B9FED720B53EC102BF0
:102AB000FDF7C1FD41EC1C0B53EC1B2BFDF7B5FDE5
:102AC00041EC1A0B18EE100AFDF757FE41EC1D0BF6
:102AD00053EC1A2BFDF7AFFD41EC190BFDF790FEFF
:102AE0000FEE100A3FEE080AB0EE40FA72E0FFE780
:102AF0009DED020A28EE000AF0EE408A38EE880AC0
:102B0000F0EE408A9DED010ADFED590A20EE200A21
:102B100010EE101A0846FDF730FE41EC1B0B029830
:102B2000FDF72BFE41EC1E0B9FED520B53EC102BCF
:102B3000FDF781FD41EC1C0B53EC1B2BFDF7D4FC86
:102B400041EC1D0B18EE100AFDF717FE41EC1A0BB5
:102B500053EC1D2BFDF76FFD41EC190BFDF750FEFB
:102B60000FEE100A3FEE080AB0EE40FA9DED010AA2
:102B7000DFED3F0A20EE200A10EE101A0846FDF79E
:102B8000FCFD41EC1E0B0298FDF7F7FD41EC1C0B20
:102B90009FED380B53EC102BFDF74DFD41EC1B0B5B
:102BA00053EC1E2BFDF741FD41EC190B18EE100AFA
:102BB000FDF7E3FD41EC1A0B53EC192BFDF73BFD40
:102BC00041EC1D0BFDF71CFE0FEE900A3FEE880A4C
:102BD000F0EE40FA18EE900AFDF7CFFD41EC1A0B2B
:102BE000B0EE4A0AF0EE6A0A01F01EFFB0EE409A1B
:102BF000F0EE609A51EC190BFDF7A0FD1F4908603B
:102C00001FEE100AFDF7B9FD41EC1A0BB0EE4A0AAF
:102C1000F0EE6A0A01F008FFB0EE409AF0EE609A1A
:102C200051EC190BFDF78AFD1449091D08601FEED0
:102C3000900AFDF7A2FD41EC1A0BB0EE4A0AF0EE45
:102C40006A0A01F0F1FEB0EE409AF0EE609A51ECA3
:102C5000190BFDF773FD09490831086003B0BDEC9D
:102C6000108BF0BDC00400200000B443000080477A
:102C7000D7B35D3F000000000000E0BF342C0140EE
:102C80001CB500246846FFF739FC01214FF4C02031
:102C900000F02EFF0121080300F06AFF01208DF8EB
:102CA000040000208DF8060003208DF805004FF485
:102CB0000040009069464FF09040FFF7B1FB0220C2
:102CC0008DF8040000208DF806008DF80700032021
:102CD0008DF805003820009069461248FFF7A0FBE8
:102CE000052203210F48FFF7E6FB052211460D4898
:102CF000FFF7E1FB052204210A48FFF7DCFB002077
:102D00000949888341F20870888040F25730088072
:102D10000121084600F00AF8044604B900BF204625
:102D20001CBD0000000400480030014070B504469E
:102D30000D4600264FF400404FF090410885B0202A
:102D400000F036FFB02809D104F1800101EB450104
:102D5000C8B200F02DFF202800D101264FF400401A
:102D60004FF090418861304670BD70B50546002631
:102D70004FF400404FF090410885A62000F018FF66
:102D8000A62814D1002000F013FF0446002000F014
:102D90000FFF40EA0424002000F00AFF40EA042468
:102DA000002000F005FF40EA04242C6001264FF4C7
:102DB00000404FF090418861304670BD002564218D
:102DC0000020DFF8C0C100DF00231A460B216E4847
:102DD000DFF8B8C100DF6E49086000231A460C21F5
:102DE0006C48DFF8A8C100DF6B49086001210020B2
:102DF000DFF890C100DFC820DFF8A0C100DF00BF0E
:102E00006748008B012811D16648008820F40070C3
:102E100064490880002062490883FFF7AFFA28B1AF
:102E20006048008840F400705E4908805C48408B30
:102E3000012814D15B48008820F4007059490880AB
:102E4000012059490880002055494883FFF7A8FA16
:102E500028B15448008840F4007052490880504816
:102E6000408B022832D14F48008820F400704D4931
:102E7000088001204C490880002049494883FFF719
:102E80008FFA18B34748008840F40070454908801D
:102E900000BF00BF00BF00BF00BFBFF34F8F00BF28
:102EA00000BF00BF4148006800F4E06040490843AB
:102EB000001D3E49086000BF00BF00BFBFF34F8F39
:102EC00000BF00BF00BF00BF00BFFDE73448C08B9C
:102ED000012804D100203249C883FEF72BFE304878
:102EE000B0F8A00068B12E48B0F9A000401E5021F3
:102EF00001EB00142A4800EB440120222D48FDF785
:102F0000E1FA2748808B012804D1002024498883D6
:102F100000F0FAFF2248B0F90001A8421FD0204873
:102F2000B0F9000110B1012817D10DE02248006866
:102F30000068642807DA02201A491431088000204A
:102F40001749A1F8020109E002201649091D08608D
:102F500001201349A1F8020100E000BF00BF1048A2
:102F6000B0F90051FEF70EFD01F020F8FEF72CFD40
:102F7000FEF76CFD01F0DEFC0220DFF820C000DF70
:102F80003EE700002D570108993D01089D560108B4
:102F900004000020D915010808000020C14F0108D5
:102FA0002805002014040048680600200CED00E00D
:102FB0000000FA05080500203000002000BF00BF17
:102FC00000BF00BF00BF00BF00BF00BF00BF00BF09
:102FD00000BF00BF00BF00BF00BF00BF00BF00BFF9
:102FE00000BF00BF00BF00BF00BF00BF00BF00BFE9
:102FF00000BF00BF00BF00BF00BF00BF00BF00BFD9
:1030000000BF00BF00BF00BF00BF00BF704700008F
:1030100070B52DED088B0446F0EE408AB0EE609A54
:10302000F0EE419A0D4614B9BDEC088B70BD38EE38
:10303000C98A94ED040AB0EE40AA94ED000A60EE4D
:1030400008AAD4ED081AB0EE611AD4ED091AF0EE10
:10305000610A94ED012AF0EE4A1A42EE081AB0EE27
:10306000610AFFF7D1FBB0EE40AA9FED11BA84EDE3
:10307000038A84ED04AAC4ED058A84ED069AC4EDA2
:10308000079AD4ED081AB0EE611AD4ED091AF0EEE1
:10309000610A7AEE8A1A71EE8B1A71EEA91AB0EEF5
:1030A000610AFFF7B1FB85ED000A00BFBCE7000035
:1030B0000000000000B9704719B191ED000A80EDE1
:1030C000000A1AB192ED000A80ED010A1BB193EDDE
:1030D000000A80ED020A00BFEDE700B9704719B1A0
:1030E00091ED000A80ED080A1AB192ED000A80ED18
:1030F000090A00BFF2E700B9704780ED040A00BF7B
:10310000FAE700000748008840F48070054908800D
:103110000020054988820548006820F400400349E2
:10312000086070471404004828050020442C014022
:103130000748008820F4807005490880012005496F
:1031400088820548006840F40040034908607047E1
:103150001404004828050020442C014010B500F05C
:1031600011F8FFF7CFFF0648006840F0200004493F
:103170000860081F008840F00100091F088010BD8A
:10318000042C014000B58FB00CA801F029FB07A862
:1031900001F0C8FA03A801F03CF901A8FFF7AEF965
:1031A00001214FF4C02000F0A3FC0121C80200F06F
:1031B000DFFC02208DF8080000208DF80A000320B3
:1031C0008DF8090002208DF80B004FF4E0600190AB
:1031D00001A94FF09040FFF723F94FF460400190B0
:1031E00001A93E48FFF71CF9062208214FF0904044
:1031F000FFF761F906220921C806FFF75CF90622EC
:103200000A214FF09040FFF756F906220D2133486E
:10321000FFF751F906220E213048FFF74CF904223E
:103220000F212E48FFF747F92D4801F00BF9002038
:10323000ADF830002020ADF8320040F207700D905C
:103240000320ADF83A000CA9254801F075FA60207A
:1032500007900120ADF820000420ADF822000020E6
:10326000ADF82800ADF82A00ADF82C00ADF82E001E
:10327000099007A91A4801F08FF90020099007A9C1
:10328000174801F0D1F90020099007A9144801F06E
:103290000BFA4FF40060ADF80C004010ADF80E00D2
:1032A0008010ADF810000F20ADF812000020ADF82E
:1032B00014004FF40050ADF816000020ADF81800CF
:1032C00003A9074801F096F80121054801F086F8A6
:1032D0000121034801F0A6F80FB000BD000400482A
:1032E000002C014010B52DED028B0F48006890EDC9
:1032F000000AB8EEC00AB0EE408A0C4890ED000A11
:1033000030EE480A0A4880ED000A0A490A4890ED62
:10331000001AF0EE480A054890ED000A0748FFF74A
:1033200077FEBDEC028B10BD40000020340400206D
:10333000400400203004002028040020141700203E
:1033400010B52DED0E8B9FEDFC0AB0EE40EAFB4868
:1033500090ED000AB0EE408AF94890ED000AB0EE18
:10336000409A90ED000AF0EE409AF6480068006836
:10337000F5490968096888421CDAF4480068006861
:10338000F04909680968884206DAEE480068006872
:10339000EE49096808600DE0EC4800680068EA49F9
:1033A00009680968884205DDE74800680068E74960
:1033B00009680860E548006890ED000AB8EEC00AA8
:1033C000DFEDE30A60EE208A9FEDDB0A29EE000ABA
:1033D000DFEDD90A20EE200A10EE101A0846FDF79C
:1033E000CCF941EC1C0BB0EE4C0AF0EE6C0A01F08B
:1033F000F7FAB0EE40AAF0EE60AAD64890ED000AC7
:1034000038EEC00A10EE101A0846FDF7B6F941EC86
:103410001C0BB0EE4C0AF0EE6C0A01F0E1FAB0EED3
:1034200040BAF0EE60BA53EC1A2B51EC1B0BFDF7CF
:10343000B7F97DD8C748C0ED008AC74890ED000AAB
:10344000DFEDBD0A20EE200A10EE101A0846FDF747
:1034500094F941EC1C0BB0EE4C0AF0EE6C0A01F052
:10346000BFFAB0EE40AAF0EE60AABC4890ED000AA8
:10347000B948D0ED000A9FEDB01A00EE810A10EEB7
:10348000101A0846FDF779F941EC1C0BB0EE4C0A16
:10349000F0EE6C0A01F0A4FAB0EE40BAF0EE60BAB9
:1034A00053EC1A2B51EC1B0BFDF77AF90FD29FED61
:1034B000AC0AAA4880ED000A9FEDA90AA64880ED53
:1034C000000A9FEDA70AA74880ED000A50E0A34834
:1034D00090ED000AB5EEC00AF1EE10FA05DDB1EE8E
:1034E000490A9D4880ED000A10E09C4890ED000AD2
:1034F000B5EEC00AF1EE10FA03D2974880ED009ABB
:1035000004E09FED970A944880ED000A934890EDFF
:10351000000A9148D0ED000A9FED871A00EE810A5B
:103520008E4880ED000A90ED000AB4EEC80A00E073
:1035300021E0F1EE10FA07DD9FED890A864880ED63
:10354000000A864880ED008A844890ED000AF1EE7A
:10355000480AB4EEE00AF1EE10FA09D29FED800AB3
:103560007D4880ED000AB1EE480A7C4880ED000AF3
:10357000BDEC0E8B10BD774890ED000A38EEC00A06
:10358000B5EEC00AF1EE10FA07DD764890ED000ABC
:10359000B5EEC00AF1EE10FA11D36E4890ED000AB4
:1035A00038EEC00AB5EEC00AF1EE10FA19D26D4835
:1035B00090ED000AB5EEC00AF1EE10FA11DD69488F
:1035C00090ED000AB5EEC00AF1EE10FA03D262489F
:1035D000C0ED009A5BE0B1EE690A5F4880ED000A39
:1035E00055E0604890ED000A20EE000AB0EE40AAD7
:1035F000B0EE000A29EE800ACAEE000AB0EE60AA18
:103600001AEE100AFDF7B9F841EC1B0B514890ED8A
:10361000000A38EEC00A10EE101A0846FDF7ADF8A1
:1036200041EC1D0BB0EE4D0AF0EE6D0A01F0D8F939
:10363000B0EE40CAF0EE60CA53EC1B2B51EC1C0BF1
:10364000FDF7AEF811D8434890ED000AF4EEC08AB9
:10365000F1EE10FA05DDB1EE690A3F4880ED000A8F
:1036600014E03D48C0ED009A10E03A4890ED000AA1
:10367000F4EEC08AF1EE10FA03DD374880ED009ACF
:1036800004E0B1EE490A344880ED000A00BF354835
:1036900090ED000A3048D0ED000A9FED271A00EEA9
:1036A000810A2E4880ED000A90ED000AB4EEC80AA7
:1036B000F1EE10FA07DD9FED2A0A274880ED000A97
:1036C000264880ED008A254890ED000AF1EE480A70
:1036D000B4EEE00AF1EE10FA09D29FED210A1E487D
:1036E00080ED000AB1EE480A1C4880ED000A194836
:1036F00090ED000A1B48D0ED000A9FED0F1A00EE76
:10370000810A1548D0ED000AB6EE001A60EE810A73
:103710009FED091A60EE810A9FED071A00EE810AFB
:103720000C4880ED000A0D4890ED000A0D4880ED30
:10373000000A00BF1CE700006F12033A14040020C7
:1037400018040020480000204C0000203C0000200D
:103750000000F042340400202C0400202804002043
:10376000000000003C04002010B52DED0A8BC2487B
:10377000006890ED000AB8EEC00AB0EE408A9FEDF6
:10378000BF0AF0EE408ABE4800680068BD4909687B
:10379000096888421CDABC4800680068B8490968B2
:1037A0000968884206DAB64800680068B6490968C0
:1037B00008600DE0B44800680068B249096809680B
:1037C000884205DDAF4800680068AF4909680860B5
:1037D000AD48006890ED000AB8EEC00ADFEDAB0A14
:1037E00020EE20AAAA4890ED000A3AEE409A19EE7F
:1037F000100AFCF7C2FF41EC1C0BB0EE4C0AF0EED5
:103800006C0A01F0EDF8B0EE40BAF0EE60BA9FED50
:10381000A10B53EC102B51EC1B0BFCF7C1FF14D286
:103820009B4880ED00AA9D4880ED008A9FED9C0A90
:10383000B4EEC08AF1EE10FA04D29FED9A0A9A48CB
:1038400080ED000ABDEC0A8B10BD944890ED000A93
:1038500038EE000A10EE101A0846FCF78EFF41EC15
:103860001C0BB0EE4C0AF0EE6C0A01F0B9F8B0EEA9
:1038700040BAF0EE60BA9FED8D0B53EC102B51EC7B
:103880001B0BFCF78DFF59D219EE100AFCF775FFE0
:1038900041EC1C0BB0EE4C0AF0EE6C0A01F0A0F803
:1038A000B0EE40BAF0EE60BA9FED800B53EC102BF7
:1038B00051EC1B0BFCF78CFF40D228EE080A77482E
:1038C000D0ED000A90ED001A00EEC10AF0EE000AF9
:1038D00069EE200A80EE201A734880ED001A90ED00
:1038E000000A7448D0ED000AB4EEE00AF1EE10FAD6
:1038F00004DD90ED000A6C4880ED000A6A4890ED06
:10390000000A6C48D0ED000AF1EE600AB4EEE00A5D
:10391000F1EE10FA06D290ED000AB1EE400A6248CC
:1039200080ED000A5D4890ED000A5F48D0ED000A86
:1039300000EEA80A594880ED000A5AE0B0EE000AED
:1039400029EE000A5548D0ED000A78EE200AC0EEB4
:10395000209A9FED530AF4EEC09AF1EE10FA06D2C7
:103960004B4880ED00AA4D4880ED008A6AE7F4EEEE
:10397000E89AF1EE10FA01D2F0EE689A474890ED1D
:10398000000A38EE400AC0EE290A4748C0ED000A96
:10399000C8EEA90A414890ED000A38EE401A90EDB1
:1039A000000A01EE200A80ED000A3F4890ED000A6F
:1039B0004048D0ED000AB4EEE00AF1EE10FA04DD62
:1039C00090ED000A384880ED000A374890ED000A73
:1039D0003848D0ED000AF1EE600AB4EEE00AF1EEEC
:1039E00010FA06D290ED000AB1EE400A2E4880EDA2
:1039F000000A2A4890ED000A2F48D0ED000AB4EEE4
:103A0000E00AF1EE10FA04DD90ED000A234880EDA3
:103A1000000A224890ED000A2748D0ED000AF1EE96
:103A2000600AB4EEE00AF1EE10FA06D290ED000A58
:103A3000B1EE400A194880ED000A154890ED000AE1
:103A40001E48D0ED000A00EEA80A1748D0ED000A83
:103A5000B6EE001A60EE810A60EEA80A00EEA80A2F
:103A60000B4880ED000A0D4890ED000A134880EDE8
:103A7000000A00BFE6E60000340000206F12033A9F
:103A8000480000204C0000203C0000200000F042D4
:103A900034040020000000000000594028040020E9
:103AA000BD378635000000002C040020000000A077
:103AB000F7C6B03E18040020140400203C04002087
:103AC0000021010F31B1094AD26A22F47852074B22
:103AD000DA6205E0054AD26A22F4F872034BDA6230
:103AE000024AD26A0243014BDA6270470010024078
:103AF00029B1064A52690243044B5A6104E0034A61
:103B000052698243014B5A61704700000010024025
:103B100029B1064A926A0243044B9A6204E0034ABE
:103B2000926A8243014B9A62704700000010024083
:103B300029B1064AD2690243044BDA6104E0034A20
:103B4000D2698243014BDA617047000000100240E5
:103B500029B1064A12690243044B1A6104E0034A80
:103B600012698243014B1A61704700000010024045
:103B700029B1064A92690243044B9A6104E0034A60
:103B800092698243014B9A61704700000010024025
:103B900029B1064AD2680243044BDA6004E0034AC2
:103BA000D2688243014BDA60704700000010024087
:103BB00030B5024600210023002414E03BB90F4D2C
:103BC0002D8905F0020515B10C4D2A7301233BB177
:103BD0000A4D2D8905F0010515B1084D287B0124FA
:103BE00004B104E0491C42F21075A942E6D300BFBB
:103BF00042F21075A94200D1002030BD00300140D2
:103C00002DE9F04F2DED088B85B05748B0F8200115
:103C100084B2564890ED000ADFED550A80EE201A76
:103C200011EE108A4046FCF7A8FD41EC190BB0EEEE
:103C3000490AF0EE690A00F0F7FEB0EE408AF0EEB5
:103C4000608A51EC180BFCF779FD0390494890ED20
:103C5000000ADFED490A60EE200A9FED481A80EE67
:103C6000810AB3EE041AC0EE010A9FED451A80EEF8
:103C7000810ADFED440A20EE200A10EE109A484631
:103C8000FCF77BFD41EC1B0BB0EE4B0AF0EE6B0A30
:103C900000F0CAFEB0EE40AAF0EE60AA51EC1A0B9A
:103CA000FCF74CFD8046FCF738FD41EC190BB0EEFB
:103CB000490AF0EE690A00F0B7FEB0EE408AF0EE75
:103CC000608A51EC180BFCF739FD02902E48006811
:103CD000FCF753FD41EC190BB0EE490AF0EE690A0E
:103CE00000F0A2FEB0EE408AF0EE608A51EC180BB4
:103CF000FCF724FD019004F0020504F0080604F02E
:103D0000200704F0010A04F0040B04F010000490F2
:103D100025B11E4801689420FDF796FD26B11C4888
:103D200001689820FDF790FD27B11A4801689C2092
:103D3000FDF78AFDBAF1000F03D002A99220FDF72A
:103D400083FDBBF1000F03D001A99620FDF77CFD98
:103D5000049818B103A99A20FDF776FD05B0BDECD3
:103D6000088BBDE8F08F00002805002034040020F7
:103D70000000F0423804002000007A448FC2753CF5
:103D800000008045333353403004002028000020D9
:103D9000300000203800002000212348DFF88CC0CC
:103DA00000DFC820DFF888C000DF00202149096853
:103DB00008602149096808602048B0F9080040F00F
:103DC000040040B11D48B0F90A00B0F5E16F02DB14
:103DD00000201A4908811948C08A012801D11749D1
:103DE000888220E01548B0F8600004280AD1134802
:103DF000B0F8220181B20C48DFF844C000DFFDF7C3
:103E00004DFD10E0FFF7FCFE0C48B0F8220118B998
:103E10000A200A49A1F822010849B1F8221188B202
:103E2000DFF80CC000DFDDE70C000020FD530108C7
:103E3000C14F01082C00002034000020280500207C
:103E40003D5401080CB50020019000902C480068FA
:103E500040F480302A49086000BF2948006800F417
:103E6000003000900198401C0190009818B901980A
:103E7000B0F5A04FF1D12248006800F4003010B135
:103E80000120009001E0002000900098012836D128
:103E900012201C4908601A484068194948600846C1
:103EA000406848600846406840F4806048600846C2
:103EB000406820F47C1048600846406840F4E810F0
:103EC00048600846006840F08070086000BF0C48F9
:103ED000006800F000700028F9D00948406820F020
:103EE0000300074948600846406840F00200486007
:103EF00000BF0348406800F00C000828F9D10CBD51
:103F0000001002400020024010B52048B0F86000C8
:103F1000032803D11D48808A012801D0002010BD4C
:103F20001B4909680868002801DB014600E041429E
:103F300041F28832914201DD0020F0E7FFF7E2F81C
:103F40006420DFF850C000DF00F02CFF9FED120A64
:103F5000124880ED000A00201149096808601148E4
:103F60000068006810490968096808440D49096833
:103F7000086000200C4909680860C820DFF814C0F8
:103F800000DFFFF7D5F80120C9E700002805002071
:103F900030000020C14F0108000000003404002060
:103FA0003C0000204400002040000020174A126816
:103FB0001168002901DB0A4600E04A42104644F23B
:103FC0007101884214DDA0F584416539104A1268F8
:103FD00011440F4A1160114609680E4A914214DDDE
:103FE0000D49B1F9081041F001010B4A11810CE0B3
:103FF00007490968002908DD44F27101091A044AD9
:104000001268A2EBA101024A11607047280000204B
:10401000C404002060E316002805002010B52DED33
:10402000068B354890ED000AB0EE408A18EE100A73
:10403000FCF7A3FB41EC1A0BB0EE4A0AF0EE6A0A59
:1040400000F0CEFCB0EE409AF0EE609A9FED2B0BA4
:1040500053EC102B51EC190BFCF7A2FB1ED2294894
:1040600090ED000AB5EEC00AF1EE10FA05D19FED11
:10407000260A264880ED000A2EE0224890ED000A2C
:10408000B5EEC00AF1EE10FA02DD9FED210A01E063
:104090009FED200A1D4880ED000A1DE018EE100A71
:1040A000FCF76BFB41EC1A0BB0EE4A0AF0EE6A0A21
:1040B00000F096FCB0EE409AF0EE609A9FED160B81
:1040C00053EC102B51EC190BFCF782FB04D29FED43
:1040D0000E0A0E4880ED000A11490C4890ED001AB6
:1040E000F0EE480A0F4890ED000A0F48FEF790FFE7
:1040F000BDEC068B10BD0000180000200000000081
:10410000000024402C040020000000004C0400208B
:1041100000009643000096C30000000000005940D4
:104120003804002030040020EC16002010B52DEDDE
:104130000A8B574890ED000AF0EE409A554890EDF2
:10414000000AF0EE408A90ED000AB0EE409A524824
:10415000006890ED000AB8EEC00AB0EE408AB4EEF6
:10416000E98AF1EE10FA02DDB0EE690A01E0B0EE84
:10417000480AB0EE408AB1EE690AB4EEC08AF1EEA8
:1041800010FA02D2B1EE690A01E0B0EE480AB0EED0
:10419000408A9FED420A28EE800A10EE101A084667
:1041A000FCF7EBFA41EC1A0B3D4890ED000A30EEBB
:1041B000480A10EE101A0846FCF7DFFA41EC1C0B17
:1041C000B0EE4C0AF0EE6C0A00F00AFCB0EE40BA19
:1041D000F0EE60BA53EC1A2B51EC1B0BFCF7E0FA33
:1041E0000AD82F4880ED008A9FED2E0A2E4880EDD8
:1041F000000ABDEC0A8B10BDB5EEC08AF1EE10FAD4
:1042000022D2274890ED000AB4EEC80AF1EE10FA67
:104210000BD290ED000ADFED210A09EE200A80EDB5
:10422000000A214880ED009A30E01D4890ED000A18
:10423000DFED1A0A08EEE00A80ED000AB1EE680A26
:10424000194880ED000A21E0154890ED000AB4EE0F
:10425000C80AF1EE10FA0BD290ED000ADFED0F0A5A
:1042600008EEA00A80ED000A0F48C0ED008A0DE0BC
:104270000B4890ED000ADFED090A09EE600A80EDB7
:10428000000AB1EE490A084880ED000A00BFB0E715
:104290001404002018040020340000206F12033A98
:1042A00030040020000000002C04002010B562B68D
:1042B0001A48006840F470001849086018480068FF
:1042C00040F001001649086008464068154908405A
:1042D00013494860084600681349084010490860BF
:1042E0000846006820F4802008600846406820F4F2
:1042F000FE0048600846C06A20F00F00C862084609
:10430000006B0A4908400649086300208860FFF7EF
:1043100099FD074801498039086010BD88ED00E02B
:10432000001002400CC07FF8FFFFF6FECCFC00FF3F
:104330000000010810B52DED068B2148006800F043
:104340000100D0B31E48001F006800F00100A0B3B8
:10435000FCF7FFFB1B48006804681B480068201A34
:1043600000EE100AB8EEC00ADFED180A20EE208A2F
:10437000B0EE480A1648FEF75BFA164880ED000AD0
:104380000068FCF7FAF941EC1A0BB0EE4A0AF0EEBD
:104390006A0A00F049FBB0EE409AF0EE609A51ECE8
:1043A000190BFCF7CBF90C49096808600648046052
:1043B00001210348103800F035F8BDEC068B10BD24
:1043C0001004004040000020D804002000409C451C
:1043D00078950020180000203000002021B10288CC
:1043E00042F08002028004E002884FF67F731A4098
:1043F000028070470A884B881A438B881A43CB88FF
:104400001A430B891A434B891A438B891A43426416
:1044100070470021018041808180C18001814181FC
:1044200081817047CA4392B20261704721B102880C
:1044300042F00102028004E002884FF6FE731A4047
:104440000280704710B504464348844208D10121D8
:10445000C014FFF79DFB0021E014FFF799FB7AE001
:10446000B4F1804F08D101210846FFF771FB00210C
:104470000120FFF76DFB6EE03848844208D101212E
:104480000220FFF765FB00210220FFF761FB62E0DD
:104490003348844208D101210420FFF759FB002151
:1044A0000420FFF755FB56E02E48844208D1012135
:1044B0001020FFF74DFB00211020FFF749FB4AE0D9
:1044C0002948844208D101212020FFF741FB002127
:1044D0002020FFF73DFB3EE02448844208D1012123
:1044E0004014FFF755FB00216014FFF751FB32E049
:1044F0001F48844209D101210804FFF749FB00212C
:104500004FF48030FFF744FB25E01A48844209D17C
:1045100001214804FFF73CFB00214FF40030FFF776
:1045200037FB18E01448844209D101218804FFF7C1
:104530002FFB00214FF48020FFF72AFB0BE00F48F0
:10454000844208D101210805FFF722FB00214FF426
:104550008010FFF71DFB10BD002C0140000400403F
:1045600000080040001000400014004000340140EA
:10457000004001400044014000480140005001401B
:1045800010B51AB1C3680B43C36004E0C368CC43E1
:10459000A4B22340C36010BD30B500240022002324
:1045A000056A25F001050562026A43688469184DB1
:1045B0002C4024F003040D682C4322F002028D8964
:1045C0002A438D882A43134DA8420BD0124DA8428E
:1045D00008D0124DA84205D0114DA84202D0114D6D
:1045E000A8420FD122F00802CD892A4322F004020A
:1045F000CD882A4323F4807323F400730D8A2B4360
:104600004D8A2B43436084618D684563026230BDEF
:104610008FFFFEFF002C01400034014000400140AC
:10462000004401400048014030B50024002200232E
:10463000056A25F010050562026A43688469174D12
:104640002C4024F440740D6844EA052422F0200232
:104650008D8942EA05128D8842EA0512104DA84262
:1046600002D0104DA84213D122F08002CD8942EA37
:10467000051222F04002CD8842EA051223F480633D
:1046800023F400630D8A43EA85034D8A43EA8503D8
:10469000436084618D688563026230BDFF8FFFFED9
:1046A000002C01400034014030B5002400220023DA
:1046B000056A25F480750562026A4368C46924F0BE
:1046C000700424F003040D682C4322F400728D89D9
:1046D00042EA05228D8842EA0522104DA84202D006
:1046E0000F4DA84213D122F40062CD8942EA05227F
:1046F00022F48062CD8842EA052223F4805323F419
:1047000000530D8A43EA05134D8A43EA05134360BB
:10471000C4618D68C563026230BD0000002C014099
:1047200000340140002101608180C180816081816D
:10473000C181018241827047002202881E4B98424B
:104740000ED01E4B98420BD0B0F1804F08D01C4BBE
:10475000984205D01B4B984202D01B4B984204D183
:104760004FF68F731A404B881A43184B984207D064
:10477000174B984204D04FF6FF431A400B891A4357
:1047800002804B68C3620B8803850B4B98420ED0A6
:104790000A4B98420BD00F4B984208D00E4B9842D0
:1047A00005D00E4B984202D0074B984201D14B895D
:1047B0000386012343617047002C0140003401400F
:1047C000000400400008004000500140001000407C
:1047D00000140040004001400044014000480140F6
:1047E0004FF0FF3141600021018001814180418112
:1047F000704700000EB501210220FFF799F91C480F
:10480000FFF720FE1120ADF800004FF44870019032
:104810000020ADF80800ADF8020069461448FFF723
:104820008BFF01211248FFF7D9FD01211048FFF746
:10483000F9FD012211460E48FFF7A2FE01210C48A6
:10484000FFF7F4FD1D20002809DB00F01F02012105
:1048500091404209920002F1E022C2F8001100BF2B
:10486000642241F288310348FDF7FAFF0EBD0000D3
:10487000000400407895002010B50A4800F0E2F9E5
:1048800040B9084800F0FBF907490860084600688D
:10489000FCF702FE0020054908600548054908604C
:1048A00010BD00006804002090040020880400204F
:1048B00001010100086400401FB500241A48006887
:1048C00000F003040FE000216846FCF7C3FC164823
:1048D000006840F02000144908606946134800F061
:1048E000DAF9601EC4B2002CEDD10F48001D00683B
:1048F00000F0030411E001216846FCF7ABFC0A4814
:10490000001D006840F020000749091D0860694645
:10491000064800F0C0F9601EC4B2002CEBD1044878
:1049200000F0FEF91FBD00000C6400407804002078
:104930006004002000201A49098949B90021194A58
:1049400011601949098841F40071174A11807047B4
:10495000002008E01249B1F90810012282401140FC
:1049600001B102E0401C1028F4DB00BF0D490968CA
:10497000491C0C4A1160411C01EBC10202EB011100
:10498000084A1268B2EBC10F08D10749098881F4BF
:104990000071054A11800021024A116000BFD6E76C
:1049A00028050020D404002014040048002809DB56
:1049B00000F01F02012191404209920002F1E02221
:1049C000C2F800117047002809DB00F01F02012126
:1049D00091404209920002F1E022C2F800117047B2
:1049E00010B52DED028BB0EE408AF0EE608A9FED9F
:1049F0000B0B53EC102B51EC180BFBF7E9FE06D810
:104A0000B0EE480AF0EE680ABDEC028B10BD51EC26
:104A1000180B81F0004141EC100BF5E7000000009D
:104A2000000000000000000010B52DED020B2DED80
:104A3000088B84B09DED0C0B51EC100BFCF700F8CB
:104A400041EC180B9DED0C0B53EC182B51EC100B9B
:104A5000FBF7EBFD41EC190B0D989FED290B10F0C6
:104A6000004F53EC102B51EC190B9FED21AB9FED38
:104A700022BB0ED0FBF794FE0ED953EC1B2B51EC4E
:104A8000190BFBF7A5FE1CD214E000BF41EC180B7C
:104A900017E0FBF785FE06D253EC1A2B51EC180BEE
:104AA000FBF7C3FDF2E753EC1B2B51EC190BFBF7A3
:104AB0008FFE06D853EC1A2B51EC180BFBF714FDA4
:104AC000E4E78DED028B9DED0C0B18EE901A10EEC5
:104AD000900A8DED000B61F31E0003909DED020B1B
:104AE00004B0BDEC088B02B010BD00000000000057
:104AF000000000000000F03F000000000000E03F68
:104B0000000000000000E0BF00B52DED048BB0EE0A
:104B1000409AF0EE609A83B051EC190BFBF73FFF1F
:104B200041EC180B18EE100A18EE901A8DED008B60
:104B3000002818BF0120084320F00040C0F17F602A
:104B400000F1E040C00F14D019EE101A19EE900ACF
:104B50008DED009B002918BF0121084320F0004083
:104B6000C0F17F6000F1E040C00F04BF012000F001
:104B700017F8B0EE480A03B0F0EE680ABDEC048BFB
:104B800000BD02E008C8121F08C1002AFAD1704710
:104B90007047002001E001C1121F002AFBD17047BD
:104BA00001490860704700000405002010B5002A84
:104BB00006DA22F00042D21D22F00703102203E0A1
:104BC000D21C22F003030C2213B19C188C4201D991
:104BD000012010BD024401448360C0E90021C91ACC
:104BE000D018884202D810600246F9E70020106011
:104BF00010BD000010B50D4C0D4800F05BF80D48DD
:104C000000F058F80C48B0F9120020B1012804D087
:104C1000022806D103E0094C03E0094C01E0034CF3
:104C200000BF00BF2046FCF7E7FA10BD40420F006E
:104C300068040020780400202805002090D003009C
:104C400020A107000146D1E90202904201D10120D2
:104C500070470020FCE70146D1E90220801A0122BA
:104C6000B2EB201F07D00A68C868904205D1D1E98D
:104C70000120904201D1012070470020FCE701464D
:104C8000C8681030C8604A68C868904201D908688E
:104C9000C860C868704770B5826810328260D0E919
:104CA00001329A4201D902688260826891E87800F4
:104CB00078C270BD18B1416881604168C1607047B9
:104CC00008480068C0010BD507480068C00707D036
:104CD000054880380068002802DA0449012008707D
:104CE00070470000FCED00E0800E00E0E8040020CA
:104CF0004FF06042D36F002BFCD0436BD367D36F70
:104D0000002BFCD0C07840EA0120A2F87C0070475C
:104D10004FF06041CA6F002AFCD081F87C007047D8
:104D200010B5002100F0ACFABDE8104000F098BAD0
:104D3000FDF7A6FFFDF73EFDFDF77CFAFCF73EFA16
:104D4000FEF70CFAFFF756FDFBF708FFFCF7F8FE3D
:104D5000FFF750FFFBF728FA002211460248DFF860
:104D60000CC000DF00BFFEE7BD2D0108C9540108DB
:104D700000BFFEE700BFFEE7074801684FF0E020F4
:104D8000416100218161072101610448016841F00E
:104D90007F410160401770470C60010820ED00E082
:104DA0007047704710B500202049A1F862002049E3
:104DB000096808601F49096808601F4800680068A2
:104DC0001E49096808609FED1E0A1E4880ED000A12
:104DD0009FED1B0A1C4880ED000A1C48006890EDFE
:104DE000000AB8EEC00A1A4880ED000A9FED140AC6
:104DF000184880ED000A9FED120A174880ED000A5E
:104E00009FED0F0A154880ED000A9FED0D0A14482A
:104E1000FEF771F99FED0A0A1248FEF76CF99FED53
:104E2000080A1148FEF767F910BD000028050020A8
:104E30002C00002034000020380000203C0000201E
:104E40000000000038040020300400204000002052
:104E500034040020280400202C0400203C040020FE
:104E6000EC1600209C160020C416002050E8001FFD
:104E700031B10B6840E80032002AF7D1084670478C
:104E8000BFF32F8FFAE7000070B50D46002812D04F
:104E90004FF6FF71084C884204D222680146104642
:104EA00000F01CFA20684570044800F0C3F8BDE823
:104EB000704000F0F5BA70BDDC040020C095002001
:104EC0000F4810B50D4942680E480B6800689342C0
:104ED00004D00A60CB88421E1A448A808A8880B235
:104EE00082420AD100200860054800F0A3F801467C
:104EF000BDE81040024800F015BA10BDF4040020CF
:104F0000C0950020E404002070B51A4DE868002820
:104F10002ED0A88A401EA882002623E0A06838B1BF
:104F200061684160606810B1A16881606660A660D8
:104F300010482146183800F0F5F9A08AA882607858
:104F4000042804D10C49E08A09880844A082012081
:104F5000607084F82500E068E860E06808B10561E9
:104F6000E6602661A88A002802D1EC68002CD5D121
:104F700070BD0000D8950020E404002070B5040046
:104F80000FD00D4DA17801262868827891420CD966
:104F900000F0E4F9286846702046BDE8704000F053
:104FA0007FBA064800F046F8F7E766702146BDE88C
:104FB0007040024800F0B6B9DC040020C095002023
:104FC0000321FFF761BF000010B50446008B0843C2
:104FD00020836278618B062A16D0052A17D10842F1
:104FE00015D001EA0002628388432083204600F046
:104FF000D9F901206070022084F825002146BDE81F
:105000001040034800F08EB931EA0002ECD010BD28
:10501000C0950020814202D342688A4201D8012013
:10502000704750E8002F0A6040E80012002AF8D1CB
:10503000002070470146406842684A600B780022B1
:10504000022B05D0012B03D0032B01D04260704707
:1050500043680BB1996042608260704770B5044646
:1050600000201546207001226270A17084F824107F
:105070006060A060E06020612062A082E082208306
:10508000608384F8250084F82600208D18B905482F
:10509000FFF7ECFE206329462046BDE8704000F093
:1050A0000FB80000F0070020034800210160034909
:1050B0000988C18070470000F404002008600108DE
:1050C00010B5028D920803D10F4A1288C2F38D02E7
:1050D000036B03EB8202530700D5121F4FF080735E
:1050E00042E9021300231C46B2F1400242F8234079
:1050F0005B1C0E2BFAD3C3691362C2624163006B5F
:105100000249016010BD000004600108A52E5AE2AA
:105110002DE9F041044640680F464FF0000804F1C5
:105120000C0620B1617802291DD0A089E8B3A089BE
:10513000E18988424ED2208904EB8000C0F81070CB
:10514000D6E85F0F401C81B2C6E8501F0028F7D197
:105150002089401C80B22081E189884201D1A4F8D5
:105160000880BDE8F081406800B1012060702046F1
:10517000FFF760FF80F825802289054604EB820254
:10518000C0694146C2F81000D6E85F0F401C82B2E9
:10519000C6E8502F0028F7D12089401C80B220811A
:1051A000E28990420BD1218109E0FFE72046FFF719
:1051B00041FF0546C0690421076085F825100120DC
:1051C0006870284600F0EEF82946BDE8F041044832
:1051D00000F0A8B8BDE8F0410320FFF7C9BD00000A
:1051E000C095002070B51B4801210268517000680D
:1051F00000F0B4F8184D6C7818E000BF05EBC4015E
:1052000048680278EAB1012A20D000F0FDF8E87879
:10521000641C844200D100240F48801CD0E84F1F3A
:10522000491EC9B2C0E8421F002AF7D1A878002859
:10523000E4D16C700948FFF7FDFEBDE8704000F056
:105240002FB9098989B2FFF7BFFEE0E78968FFF748
:105250005FFFDCE7DC04002000160020C095002082
:105260000548017811B101214170704703494FF0A1
:105270008050086070470000EC04002004ED00E05E
:10528000F0B4154DAB1CEE784FEA0507D3E84F2F6D
:10529000B24202D1BFF32F8F11E0521CD4B2C3E847
:1052A000424F002AF2D100BFD7E84F2F541CB4421E
:1052B00000D10024E4B2C7E8434F002BF4D1EB78CF
:1052C000934205D905EBC202C2E90101F0BC704767
:1052D000F0BC0220FFF74CBD00160020104A10B5AC
:1052E000D368ABB113469B8A03E08CB12246A48AF3
:1052F0002344D4688B42F8D3C460D0600261C46890
:1053000004B12061591A8182908A401A908210BD9E
:105310000024C460D060C91A02619182848210BDE9
:10532000D895002030B502780023022A03D0012A44
:1053300001D0032A00D101238C7800E01046426896
:1053400012B19578A542F9D24A6041601BB102B111
:105350009160886030BD0020FBE7000003494A6887
:10536000426000228260486070470000C0950020C3
:1053700010B5836804462BB9607801280ED1084B1C
:1053800003E09B6818780028FBD0204600F01EF848
:105390002146BDE810401846FFF7C4BF10BD00000D
:1053A000C095002010B5016900290ED0C268CA60FE
:1053B000C36800223BB18B8A848A23448B82C368F2
:1053C0001961C26000E08A82026110BD816839B152
:1053D00042684A604168002901D08068886070474F
:1053E000054906E04A68824202D140684860704739
:1053F00011460029F6D17047C095002002220270A4
:10540000002242604180704710B5416879B1FFF7D2
:1054100011FE0446FFF7C6FF01206070032084F8E8
:1054200025002146BDE810400348FFF77BBF4188B7
:10543000491C418010BD0000C095002010B50C46ED
:10544000418819B1491E4180002010BD34B10A4A7B
:105450004368116823B1FFF765FF07E0012010BD25
:105460004160136800215960116888600721204657
:10547000FFF70AFDF2E70000DC04002006480068A0
:10548000D0E90B10814203D300680449884202D05E
:105490000120FFF76DBC7047DC040020A52E5AE206
:1054A0000749022248604270064A1278002A05D055
:1054B00006C98A4202D0C078FFF72ABC70470000B4
:1054C000DC040020E80400202DE9F0471646884659
:1054D0008146FFF7F5FB002004463E4A3E4902E0C4
:1054E00042F82040401C0B889842F9D33B483822B0
:1054F00001883B48FFF75AFB3A48008880B240F0E9
:105500000042394801683948FFF750FB3848082203
:10551000018838480068FFF749FB374FFF25374AB5
:10552000FD703C8500213846FFF798FD3448042182
:105530000170446033480170C46004618482F86A79
:105540002030FAF72BFE304831490760022078708E
:105550002E48047044700978C170FFF7A5FD2D48EE
:10556000016841F47F0101600068290601EA00201A
:105570002849C0431439B0FA80F00968C0F1080026
:10558000C1F30221814200DB481C2249091F0B683C
:105590006FF08072824063F317020A60FFF7ECFB42
:1055A0001D49002808600DDB00F1E02181F800545E
:1055B00000F01F02012191404011800000F1E02025
:1055C000C0F80011324641464846BDE8F047002386
:1055D00000F064B884160020006001081C60010817
:1055E000900600200460010820600108F0070020F8
:1055F000266001081004002088950020754D0108E0
:10560000C0950020D8950020DC0400200016002062
:105610002460010820ED00E0F00400200C4810B5E3
:105620000268012151700068FFF798FEFFF748FCFF
:1056300008480168491C0160FFF766FC00F00EF89D
:105640000548FFF7F7FCBDE81040FFF729BF000051
:10565000DC040020E4040020C095002070B50D4C4F
:105660002068002815D0A0880B4E401EA0800AE0BC
:10567000E888FFF796FBA888A08028682060294664
:105680003068FFF7C7FCA088002802D12568002DEC
:10569000EED170BDFC040020100400202DE9F04183
:1056A0001E46174680460C4611F0FF0F00D14C1CD9
:1056B0001948FFF7DBFB05002BD0200A2F63288554
:1056C000E1B242462846EE61FFF7C8FC01241348C8
:1056D000134905E000EB840252F8042C22B1641C4B
:1056E0000A889442F6D9002400EB8400E6B240F820
:1056F000045C0C48EE70007818B101212846FFF7D1
:10570000F7FA2846FFF73AFC0748006880F825605A
:105710002046BDE8F081000090060020841600209D
:1057200000600108E8040020DC04002070B51E4C75
:10573000002680B11D4A1288904222D81C4A02EBF2
:10574000800050F8045CE5B1A97085F82410206849
:10575000A84205D017E020688170206880F82410E6
:1057600014484068807888421BD912482168FFF7A6
:10577000D9FD216801204870206880F8256000204C
:105780000DE0FF2070BD2846FFF7F2FD6878012884
:1057900007D10848FFF74EFC216881F82560FFF724
:1057A000EDFB002070BD0000DC040020006001085B
:1057B00084160020C0950020F0EE405AB0EE605AEA
:1057C0009FEDA56A25EE866AB0EE460AF0EE453AF0
:1057D00035EE006AF6EE006A26EE266AB0EE464A1C
:1057E00035EE406AF6EE006A26EE266AF0EE464A8C
:1057F0000021F5EEC03AF1EE10FA00DD0121F5EEE0
:10580000C04AF1EE10FA00D2891CB5EEC04AF1EEA2
:1058100010FA00D2091D07297DD2DFE801F07C04CF
:10582000305C8AB6E200F0EE640AB0EE441A31EE63
:10583000206AB0EE460AB7EE006A76EE401AF5EE40
:10584000C01AF1EE10FA11D2B7EE006AC6EE006A85
:10585000B0EE660A9FED816AF0EE461A21EE006A0C
:10586000B0EE461A20EE806AF0EE460AB6EE006A06
:1058700021EE863A33EE012A72EE202AE4E0F0EEC1
:10588000440AB1EE631A31EE206AB0EE460AB7EE72
:10589000006A76EE401AF5EEC01AF1EE10FA11D257
:1058A000B7EE006AC6EE006AB0EE660A9FED6B6A5C
:1058B000F0EE461A21EE006AB0EE461A20EE806A3B
:1058C000F0EE460AB6EE006A61EE862A32EE813AC2
:1058D00033EE202AB8E0F0EE630AB1EE641A31EE3E
:1058E000206AB0EE460AB7EE006A76EE401AF5EE90
:1058F000C01AF1EE10FA13D2B7EE006AC6EE006AD3
:10590000B0EE660A9FED556AF0EE461A21EE006A87
:10591000B0EE461A00E090E020EE806AF0EE460A13
:10592000B6EE006A21EE863A73EE202A32EE812A24
:105930008AE0F1EE630AB0EE641A31EE206AB0EE4E
:10594000460AB7EE006A76EE401AF5EEC01AF1EE9E
:1059500010FA11D2B7EE006AC6EE006AB0EE660A1F
:105960009FED3E6AF0EE461A21EE006AB0EE461A4E
:1059700020EE806AF0EE460AB6EE006A21EE862A34
:1059800072EE012A32EEA03A5EE0F1EE440AB0EE89
:10599000631A31EE206AB0EE460AB7EE006A76EE80
:1059A000401AF5EEC01AF1EE10FA11D2B7EE006A05
:1059B000C6EE006AB0EE660A9FED286AF0EE461A5F
:1059C00021EE006AB0EE461A20EE806AF0EE460A3A
:1059D000B6EE006A21EE862A32EE203A73EE012AF4
:1059E00032E0F1EE640AB1EE441A31EE206AB0EE14
:1059F000460AB7EE006A76EE401AF5EEC01AF1EEEE
:105A000010FA11D2B7EE006AC6EE006AB0EE660A6E
:105A10009FED126AF0EE461A21EE006AB0EE461AC9
:105A200020EE806AF0EE460AB6EE006A61EE862A43
:105A300032EEA02A32EE013A06E0B6EE002AF6EE89
:105A4000002AB6EE003A00BF00BF80ED002AC0ED8C
:105A5000012A80ED023A7047D7B3DD3F0000000015
:105A60002DE9F04F2DED048B8BB0FBF74BFFFE487B
:105A7000B0F90A00B0F5E16F02DA4FF4E16002E03C
:105A8000F948B0F90A000190F748B0F9820000EE39
:105A9000100AB8EEC00ADFEDF50A20EE200A9FEDED
:105AA000F41AC0EE010AB5EE000A20EE800A8DED70
:105AB000000A0098FAF761FE41EC190BB0EE490AB2
:105AC000F0EE690AFEF7B0FFB0EE408AF0EE608AB1
:105AD00051EC180BFAF732FE0546E64909680868EA
