:020000040800F2
:10000000800F00209D010008B12200082322000873
:10001000AD22000835020008B924000800000000E5
:10002000000000000000000000000000872300081E
:100030007F040008000000008523000889230008D1
:10004000B7010008B7010008B7010008B7010008B0
:10005000B7010008B7010008B7010008B7010008A0
:10006000B7010008B7010008B7010008B701000890
:10007000B7010008B7010008B7010008B701000880
:10008000B7010008B7010008B7010008B701000870
:10009000A924000839020008B7010008B7010008C8
:1000A000B7010008B7010008B7010008B701000850
:1000B000B7010008B7010008B7010008B701000840
:1000C000B7010008B7010008B7010008B701000830
:1000D000B7010008B7010008B7010008B701000820
:1000E000B7010008B7010008B7010008B701000810
:1000F000B7010008B7010008B7010008B701000800
:10010000000000000000000000000000B70100082F
:10011000B7010008B7010008B7010008B7010008DF
:10012000B7010008B7010008B7010008B7010008CF
:10013000B7010008B701000800000000000000003F
:10014000B7010008B7010008B7010008000000006F
:10015000000000000000000000000000000000009F
:100160000000000000000000B7010008B70100080F
:10017000B7010008000000000000000000000000BF
:1001800000000000B7010008DFF80CD000F040F8D4
:1001900000480047852B0008800F00200648804754
:1001A00006480047FEE7FEE7FEE7FEE7FEE7FEE75C
:1001B000FEE7FEE7FEE7FEE72924000889010008C4
:1001C00040EA01039B0703D009E008C9121F08C0D9
:1001D000042AFAD203E011F8013B00F8013B521E59
:1001E000F9D27047421C10F8011B0029FBD1801A7C
:1001F000704730B505460020034600E05B1C934283
:1002000005D2EC5CC85C201A01D1002CF6D130BDBF
:10021000064C074D06E0E06840F0010394E8070053
:1002200098471034AC42F6D3FFF7B2FFD02F000846
:10023000F02F000800BFFEE710B5024800F038FAC2
:1002400010BD00005000002070B504460D46002689
:100250000DB9666B00E0A66B206800F5D87000EB66
:100260000510006800F00400B060B06840B9206874
:1002700000F5D87000EB05100068400D306007E015
:10028000206800F5D87000EB05100068C0087060A9
:10029000206800F5D87000EB0510006800F002003F
:1002A0004008F060206800F5D87000EB0510406849
:1002B00000F00F003061206800F5D87000EB0510E9
:1002C000406800F47F40000AF0613562206800F564
:1002D000D87000EB051080683075206800F5D87084
:1002E00000EB0510806800F47F40010A71752068FA
:1002F00000F5D87000EB0510806800F47F00010C59
:10030000B175206800F5D87000EB05108068010E0B
:10031000F175206800F5D87000EB0510C0683076E4
:10032000206800F5D87000EB0510C06800F47F402D
:10033000010A7176206800F5D87000EB0510C068DE
:1003400000F47F00010CB176206800F5D87000EB56
:100350000510C068010EF17665B92068C06840F0EC
:1003600020002168C8602068406920F00A002168E8
:1003700048610BE02068006940F0200021680861B6
:100380002068406920F050002168486194F83D00E1
:10039000222803D094F83D00322805D12068406916
:1003A00020F40F4021684861CDB994F83D004228FF
:1003B00004D0622806D072280CD107E0122084F8FD
:1003C0003D000BE0322084F83D0007E0522084F825
:1003D0003D0003E0012084F83D0000BF19E094F8DF
:1003E0003D00522804D0622806D072280CD107E0C4
:1003F000122084F83D000BE0222084F83D0007E045
:10040000422084F83D0003E0012084F83D0000BF55
:1004100000BF204600F00DFC002070BD10B5044662
:100420002068406920F001002168486194F83D008F
:10043000122805D12068406920F40F4021684861E6
:1004400094F83D00422804D0522806D072280CD1DE
:1004500007E0222084F83D000BE0322084F83D00C4
:1004600007E0622084F83D0003E0012084F83D00AD
:1004700000BF00BF204600F069FD002010BD70479E
:1004800000200749C8610748006940F00400054999
:1004900008610846006940F04000086170470000AC
:1004A00030000020002002400021074AD1610749A6
:1004B000096941F00201054A116111464861096963
:1004C00041F04001116170473000002000200240DF
:1004D000034A126942F00102014B1A610180704720
:1004E0000020024000200F49C96801F010011029C6
:1004F00007D10D49C96941F002010B4AD16140F0B1
:1005000010000849C96801F00401042907D106490F
:10051000C96941F00101044AD16140F00400014978
:10052000C8607047002002403000002070B50446CB
:1005300000F080FE054609E0601C38B124B100F0EF
:1005400079FE401BA04201D9032070BD0F48C0684E
:1005500000F001000028EFD10C48C06800F0200036
:10056000202801D10949C8600848C06800F010007F
:10057000102805D00548C06800F00400042803D105
:10058000FFF7B0FF0120E0E70020DEE70020024097
:1005900030B5024600230C7D012000FA04F31068F8
:1005A000D0F8000240F001001468C4F8000210689E
:1005B000D0F81C0298431468C4F81C02C869E8B952
:1005C0001068D0F80C0298431468C4F80C028888AC
:1005D00080B28C8940EA0444106800F510704D69BF
:1005E00040F83540088880B20C8940EA044410681D
:1005F00000F510704D6900EBC5004460C869012822
:100600001DD11068D0F80C0218431468C4F80C020D
:10061000888880B20C8840EA0444106800F51070A5
:100620004D6940F83540888980B20C8940EA04441D
:10063000106800F510704D6900EBC50044608869D2
:1006400038B91068D0F8040298431468C4F804025A
:1006500006E01068D0F8040218431468C4F80402D5
:10066000086938B91068D0F8140298431468C4F8BF
:10067000140206E01068D0F8140218431468C4F895
:100680001402086A012806D11068D0F81C02184329
:100690001468C4F81C021068D0F8000220F00100B1
:1006A0001468C4F80002002030BD016C70470000DF
:1006B00070B5044600252068C06800F010001028BE
:1006C00009D120684069C0F3C00020B145F400752D
:1006D00010202168C8602068006900F01000102810
:1006E00009D120684069C0F3801020B145F48065CD
:1006F0001020216808612068406900F0010088B37B
:10070000206880687449084088420BD0206880685F
:1007100072490840884205D02068806870490840C6
:1007200088421FD12068806800F0020002280DD0A6
:100730002068806800F40070B0F5007F06D0206863
:10074000806800F40030B0F5003F03D12046FFF789
:1007500065FE01E045F40065206880686149084352
:100760002168886020684069C0F3400040B120687B
:10077000C06800F0030018B100212046FFF764FDB7
:1007800020684069C0F3001040B12068006900F0A3
:10079000030018B101212046FFF756FD206C2843C5
:1007A00020642068806900F0010068B12068406919
:1007B000C0F3002040B120684069C0F3C03018B1D8
:1007C000206C40F0010020642068806900F0020085
:1007D00002280DD120684069C0F3402040B1206854
:1007E0004069C0F3C03018B1206C40F002002064B2
:1007F0002068806900F0040004280DD12068406959
:10080000C0F3802040B120684069C0F3C03018B107
:10081000206C40F0040020642068806900F07000C3
:1008200080B320684069C0F3C02058B32068406995
:10083000C0F3C03030B32068806900F070004028F9
:100840001BD006DC102809D020280CD0302824D159
:100850000EE0502817D060281FD119E0206C40F01E
:10086000080020641AE0206C40F01000206415E0BD
:10087000206C40F02000206410E0206C40F040002C
:1008800020640BE011E0206C40F08000206405E063
:10089000206C40F48070206400E000BF00BF20683E
:1008A000806920F0700021688861206C90B1206818
:1008B000406840F0040021684860012084F83D0051
:1008C0002068406948F65B7188432168486120468A
:1008D000FFF7EBFE70BD00000100000400010008FE
:1008E000000001101905010070B50446002600251E
:1008F0000CB9012070BD94F83D0028B9002084F89F
:100900003C00204600F0CEF8022084F83D0020682C
:10091000006820F00200216808602068006840F04C
:1009200001002168086000F085FC05460EE000F03B
:1009300081FC401B0A2809D9032084F83D0000BF30
:10094000002084F83C0000BF0320D3E72068406803
:1009500000F001000028EAD02068406800F00100A3
:10096000002875D0A069012806D12068006840F0F1
:1009700080002168086005E02068006820F08000A1
:1009800021680860E069012806D12068006840F00D
:1009900040002168086005E02068006820F0400001
:1009A00021680860206A012806D12068006840F0AC
:1009B00020002168086005E02068006820F0200021
:1009C00021680860606A012806D12068006840F04C
:1009D00010002168086005E02068006820F0100021
:1009E00021680860A06A012806D12068006840F0EC
:1009F00008002168086005E02068006820F0080011
:100A000021680860E06A012806D12068006840F08B
:100A100004002168086005E02068006820F00400F8
:100A200021680860D4E9020108432169084361692B
:100A300008436168491E08432168C861206800684E
:100A400020F001002168086000F0F4FB05460FE08B
:100A50001AE000F0EFFB401B0A2809D9032084F8B4
:100A60003D0000BF002084F83C0000BF032041E7A8
:100A70002068406800F001000028EAD12068406842
:100A800000F0010000B90126012E06D100202064EB
:100A9000012084F83D0000202CE7042084F83D006C
:100AA000012027E710B586B004461849206888421F
:100AB00029D100BF1648C06940F000701449C861D0
:100AC0000846C06900F00070009000BF00BF00BF82
:100AD0000846406940F4003048610846406900F427
:100AE0000030009000BF00BF4FF4C05001900220C2
:100AF000029000200390032004900920059001A992
:100B0000C00600F0ABFA06B010BD00000064004063
:100B100000100240024600BF92F83C00012801D1BB
:100B200002207047012082F83C0000BFB1B992F862
:100B30003D0022280BD092F83D00422807D092F8C1
:100B40003D00622803D092F83D00722806D100BF14
:100B5000002082F83C0000BF0220E2E7012916D104
:100B600092F83D0032280BD092F83D00522807D071
:100B700092F83D00622803D092F83D00722806D119
:100B800000BF002082F83C0000BF0220C9E7C9B9BD
:100B900092F83D00122804D0322806D052280CD1F9
:100BA00007E0422082F83D000BE0622082F83D0021
:100BB00007E0722082F83D0003E0222082F83D0029
:100BC00000BF19E092F83D00122804D0222806D078
:100BD00042280CD107E0522082F83D000BE0622051
:100BE00082F83D0007E0722082F83D0003E03220E9
:100BF00082F83D0000BF00BF00201064106840690B
:100C000040F40F401368586100BF002082F83C0098
:100C100000BF31B91068406940F00A00136858619C
:100C200005E01068406940F05000136858610020EA
:100C300077E73EB504460025002000900190029021
:100C4000606B10B3606B006AF8B9606B008880B2AB
:100C5000ADF80000606B007B8DF80200606B007CDB
:100C60008DF8030000BF05E0606B1430415D01A802
:100C700041556D1C9DF80300A842F5D8684601F067
:100C80002FFC00212046FFF745FF3EBD2DE9F04136
:100C900004460E46042500272068806800F0806026
:100CA000B0F1806F0DD02068806800F00060B0F176
:100CB000006F06D02068806800F08050B0F1805F3F
:100CC0007ED100BF94F83C00012802D10220BDE88B
:100CD000F081012084F83C0000BF94F83D002228F8
:100CE00004D0322806D062280CD107E0422084F8D4
:100CF0003D000BE0522084F83D0007E0722084F8AC
:100D00003D0003E0122084F83D0000BF00BF2068D2
:100D1000806800F0806008B1002507E020688068E6
:100D200000F0006008B1012500E00225206800F510
:100D3000C07000EB0510006800F00101206800F5AC
:100D4000C07000EB05100160206B806898B92068C6
:100D500000F5C07000EB05100068216BC968226BBC
:100D6000128841EA42510843216801F5C07101EB44
:100D70000511086015E0206800F5C07000EB051053
:100D80000068216B8968226B526841EAC201226BBC
:100D9000D26811430843216801F5C07101EB0511C8
:100DA0000860206B007C00F00F00216B0861206858
:100DB00000F5C07000EB0510406820F00F0100E066
:100DC000B9E0206800F5C07000EB051041602068B4
:100DD00000F5C07000EB05104168206B006901430D
:100DE000206800F5C07000EB05104160206BC07DED
:100DF0000106206B807D41EA0041206B407D41EA85
:100E00000021206B007D0143206800F5C07000EBDD
:100E100005108160206BC07E0106206B807E41EA58
:100E20000041206B407E41EA0020216B097E08438F
:100E3000216801F5C07101EB0511C860206800F55B
:100E4000C07000EB0510006840F00101206800F55B
:100E5000C07000EB0510016000F0ECF9074628E0D7
:100E6000701C30B326B100F0E5F9C01BB04220D9A8
:100E7000032084F83D0035B92068806840F0800088
:100E8000216888600EE0012D06D12068806840F45A
:100E900000402168886005E02068806840F4000018
:100EA0002168886000BF002084F83C0000BF032058
:100EB0000DE74DB92068806821490840884201D17A
:100EC000012016E0002014E0012D09D1206880687F
:100ED0001C490840884201D101200AE0002008E0B6
:100EE0002068806818490840884201D1012000E04C
:100EF00000200028B4D094F83D00422804D05228A5
:100F000006D072280CD107E0222084F83D000BE0C7
:100F1000322084F83D0007E0622084F83D0003E0C1
:100F2000012084F83D0000BF00BF00BF002084F80E
:100F30003C0000BFCBE6042084F83D000120C6E65B
:100F4000010000040001000800000110704731B5E5
:100F500000F070F90546009C601C00B1641C00BFE5
:100F600000F068F9401BA042FAD338BD2DE9F041EA
:100F700004460E460127002500BF2648007E0128B2
:100F800002D10220BDE8F08101202249087600BF8D
:100F90002068012812D14CF25030FFF7C7FA88BB05
:100FA000FFF76EFA4CF25030FFF7C0FA07461A48C6
:100FB000006920F004001849086123E04CF2503029
:100FC000FFF7B4FAF0B94FF0FF303060656812E017
:100FD0002846FFF769FA4CF25030FFF7A7FA0746A8
:100FE0000D48006920F002000B4908610FB135601F
:100FF00007E005F50065D4E9011001EBC020A84227
:10100000E6D800BF00BF00200249087600BF38467E
:10101000B8E70000300000200020024003480069CB
:1010200040F0800001490861002070470020024024
:101030000748006900F0800028B10648044948606C
:101040000548486001E0012070470020FCE70000EF
:101050000020024023016745AB89EFCD78B50346F8
:10106000002200240020CBE0012696400D6805EA0E
:101070000604002C72D04D68022D02D04D68122D4E
:1010800013D1D60803F1200555F826005507EE0EBA
:101090000F25B540A8435607F60E0D69B540284305
:1010A000D60803F1200545F82600186856000325E8
:1010B000B540A8430D7905F003055600B540284317
:1010C00018604D68012D08D04D68022D05D04D687F
:1010D000112D02D04D68122D13D1986856000325AA
:1010E000B540A8435600CD68B5402843986058687D
:1010F00001259540A8430D79C5F300159540284377
:101100005860D86856000325B540A84356008D683E
:10111000B5402843D8604D6805F08055B5F1805F33
:101120006DD100BF394DAD6945F00105374EB56150
:101130003546AD6905F00105009500BF00BF4FEAD7
:10114000B635960855F8260095072E0F0F25B540A1
:10115000A843B3F1904F02D1002515E04FE02C4D8C
:10116000AB4201D101250FE02A4DAB4201D102254E
:101170000AE0294DAB4201D1032505E0274DAB42E2
:1011800001D1042500E005259607360FB540284318
:10119000234D960845F82600224D2868A0434D6847
:1011A00005F48035B5F5803F00D120431D4D286002
:1011B0002D1D2868A0434D6805F40035B5F5003FA6
:1011C00000D12043174D2D1D28602D1D2868A043F8
:1011D0004D6805F48015B5F5801F00D12043114DF1
:1011E000083528602D1D2868A0434D6805F40015BA
:1011F000B5F5001F00D120430A4D0C352860521C64
:101200000D68D540002D7FF42FAF78BD001002404F
:101210000004004800080048000C00480010004886
:1012200008000140000401400AB1816100E08162D0
:10123000704700000148006870470000000000206F
:1012400002480068401C0149086070470000002007
:1012500010B50848006840F01000064908600320F7
:1012600000F0B4F8002000F007F800F019F80020B2
:1012700010BD00000020024070B504460748006819
:101280004FF47A71B0FBF1F5284600F0ACFF002274
:101290002146501E00F05BF8002070BD20000020A9
:1012A00008B500BF1B48806940F0010019498861FA
:1012B0000846806900F00100009000BF00BF0320D5
:1012C00000F084F8002211466FF00B0000F03FF8A8
:1012D000002211466FF00A0000F039F80022114692
:1012E0006FF0090000F033F800221146501F00F0A3
:1012F0002EF800221146101F00F029F80022114696
:10130000901E00F024F800221146501E00F01FF835
:1013100008BD00000010024000BF00F01F020121C4
:101320009140034A430942F8231000BF7047000070
:1013300080E100E000BF00F01F020121914042095E
:10134000920002F1E022C2F8001100BF70472DE9BF
:10135000F05F80460D461646002700F0CDFF074699
:1013600039462A46334601F00700C0F1070ABAF1B0
:10137000040F02D94FF0040A01E0C0F1070AD14678
:1013800000F1040ABAF1070F02D24FF0000A01E09F
:10139000A0F1030AD4464FF0010A0AFA09FAAAF1A9
:1013A000010A0AEA020A0AFA0CFA4FF0010B0BFAD8
:1013B0000CFBABF1010B0BEA030B4AEA0B042146D1
:1013C000404600F0CBFFBDE8F09F000000BF00F0FA
:1013D0000702064B19684FF6FF031940044B0B43F5
:1013E00043EA0221014B196000BF70470CED00E099
:1013F0000000FA0500BF00BF00BF00BF00BFBFF381
:101400004F8F00BF00BF00BF0948006800F4E060D4
:1014100008490843001D0649086000BF00BF00BF1F
:10142000BFF34F8F00BF00BF00BF00BF00BFFDE78D
:101430000CED00E00000FA0570B504460D460026EC
:10144000B448006800F00700A8420ED2B148006816
:1014500020F007002843AF4908600846006800F004
:101460000700A84201D0012070BD207800F00200E2
:10147000022807D1A848406820F0F000A16808437E
:10148000A5494860207800F0010000287CD0606801
:1014900001283BD12020010391FAA1F1B1FA81F199
:1014A00008430121B1EB601F02D19B4800681DE099
:1014B0002020010391FAA1F1B1FA81F10843022140
:1014C000B1EB601F02D19448006A0FE020200103B5
:1014D00091FAA1F1B1FA81F108430421B1EB601F47
:1014E00002D18D48406801E08B48406A20210A0300
:1014F00092FAA2F2B2FA82F2114301F01F02012124
:101500009140084000287CD10120ADE760680228A6
:101510003BD12020010591FAA1F1B1FA81F10843F4
:101520000121B1EB601F02D17B4800681DE0202043
:10153000010591FAA1F1B1FA81F108430221B1EB61
:10154000601F02D17448006A0FE02020010591FA63
:10155000A1F1B1FA81F108430421B1EB601F02D17E
:101560006D48406801E06C48406A20210A0592FA03
:10157000A2F2B2FA82F2114301F01F02012191405E
:101580000840E8BB01206FE77EE02020022191FAAD
:10159000A1F1B1FA81F108430121B1EB601F02D141
:1015A0005D4800681DE02020022191FAA1F1B1FA06
:1015B00081F108430221B1EB601F02D15648006A55
:1015C0000FE02020022191FAA1F1B1FA81F1084344
:1015D0000421B1EB601F02D14F48406801E04E4842
:1015E000406A2021022292FAA2F2B2FA82F2114358
:1015F00001F01F0201219140084008B9012033E7A2
:10160000FFE74548406820F003006168084342490D
:101610004860FFF70FFE06466068012810D108E019
:10162000FFF708FE801B41F28831884201D9032070
:101630001AE73948406800F00C000428F0D123E094
:101640006068022810D108E0FFF7F4FD801B41F22A
:101650008831884201D9032006E72F48406800F00E
:101660000C000828F0D10FE008E0FFF7E3FD801B35
:1016700041F28831884201D90320F5E626484068C6
:1016800000F00C000028F0D12248006800F00700AC
:10169000A8420ED91F48006820F0070028431D49C2
:1016A00008600846006800F00700A84201D0012049
:1016B000DAE6207800F00400042807D116484068D4
:1016C00020F4E060E168084313494860207800F0A6
:1016D0000800082808D11048406820F460502169AB
:1016E00040EAC1000C49486000F022F80A49496804
:1016F00001F0F001F02292FAA2F2B2FA82F2D140A5
:10170000064A515CC840064908600020FFF7B4FD56
:101710000020A9E60020024000100240B82F000877
:1017200020000020014800687047000020000020D1
:1017300070B5002100240022002300201A4D6968A2
:1017400001F00C0565B3042D02D0082D27D101E06E
:10175000164827E001F470154FF4701696FAA6F6B5
:10176000B6FA86F6F540124E735D0F4DED6A05F040
:101770000F050F2696FAA6F6B6FA86F6F5400D4E38
:10178000745D01F480352DB1084DB5FBF4F505FB12
:1017900003F202E0084D03FB05F2104602E000BF31
:1017A000024800BF00BF70BD0010024000127A0066
:1017B000982F0008A82F000800093D00F8B504463E
:1017C0000025207800F0010000287BD0FA4840680E
:1017D00000F00C0004280CD0F748406800F00C0022
:1017E000082845D1F448406800F48030B0F5803FC7
:1017F0003ED12020010391FAA1F1B1FA81F1084311
:101800000121B1EB601F02D1EB4800681DE02020F0
:10181000010391FAA1F1B1FA81F108430221B1EB80
:10182000601F02D1E448006A0FE02020010391FA12
:10183000A1F1B1FA81F108430421B1EB601F02D19B
:10184000DD48406801E0DC48406A20210A0392FA42
:10185000A2F2B2FA82F2114301F01F02012191407B
:1018600008400028B1D0606800282BD10120F8BDC5
:1018700000BF6068B0F5803F06D1CF48006840F4F3
:101880008030CD49086029E0606858B9CA480068CE
:1018900020F48030C84908600846006820F48020A1
:1018A00008601BE06068B0F5A02F0CD1C24800684A
:1018B00040F48020C04908600846006840F4803049
:1018C00008600BE0A1E0BC48006820F48030BA4911
:1018D00008600846006820F48020086000BFB64811
:1018E000C06A20F00F00A1680843B349C86260686D
:1018F000A0B3FFF79FFC054606E0FFF79BFC401BEB
:10190000642801D90320B2E72020010391FAA1F154
:10191000B1FA81F108430121B1EB601F02D1A64861
:1019200000681EE02020010391FAA1F1B1FA81F1D3
:1019300008430221B1EB601F02D19F48006A10E00A
:101940002020010391FAA1F1B1FA81F108430421A9
:10195000B1EB601F03D19848406802E010E0964860
:10196000406A20210A0392FAA2F2B2FA82F21143EB
:1019700001F01F020121914008400028BDD044E041
:10198000FFF758FC054606E0FFF754FC401B6428AF
:1019900001D903206BE72020010391FAA1F1B1FAEC
:1019A00081F108430121B1EB601F02D18248006838
:1019B0001DE02020010391FAA1F1B1FA81F1084361
:1019C0000221B1EB601F02D17B48006A0FE02020AA
:1019D000010391FAA1F1B1FA81F108430421B1EBBD
:1019E000601F02D17448406801E07348406A2021BA
:1019F0000A0392FAA2F2B2FA82F2114301F01F0234
:101A00000121914008400028BED1207800F002005A
:101A100002285CD16848406800F00C0050B166486C
:101A2000406800F00C00082852D16348406800F478
:101A30008030E8BB2020022191FAA1F1B1FA81F1B6
:101A400008430121B1EB601F02D15B4800681DE033
:101A50002020022191FAA1F1B1FA81F1084302217B
:101A6000B1EB601F02D15448006A0FE02020022130
:101A700091FAA1F1B1FA81F108430421B1EB601FA1
:101A800002D14D48406801E04B48406A20210222C3
:101A900092FAA2F2B2FA82F2114301F01F0201217E
:101AA0009140084028B12069012802D00120DEE6DB
:101AB0000EE04148006820F0F800F82292FAA2F205
:101AC000B2FA82F26169914008433B490860B1E093
:101AD000206970B3012191FAA1F0B0FA80F0374A81
:101AE00042F82010FFF7A6FB054606E0FFF7A2FB31
:101AF000401B022801D90320B9E62020022191FAD7
:101B0000A1F1B1FA81F108430121B1EB601F02D1CB
:101B1000294800681EE02020022191FAA1F1B1FAC3
:101B200081F108430221B1EB601F03D12248006A12
:101B300010E02CE02020022191FAA1F1B1FA81F10C
:101B400008430421B1EB601F02D11B48406801E04B
:101B50001948406A2021022292FAA2F2B2FA82F2D5
:101B6000114301F01F020121914008400028BDD01F
:101B70001148006820F0F800F82292FAA2F2B2FAB6
:101B800082F26169914008430B49086052E00020ED
:101B9000012191FAA1F1B1FA81F1084A42F821003C
:101BA000FFF748FB05460BE0FFF744FB401B02280C
:101BB00006D903205BE6000000100240000042420C
:101BC0002020022191FAA1F1B1FA81F1084301210B
:101BD000B1EB601F02D1FB4800681DE0202002210C
:101BE00091FAA1F1B1FA81F108430221B1EB601F32
:101BF00002D1F448006A0FE02020022191FAA1F1FD
:101C0000B1FA81F108430421B1EB601F02D1ED4824
:101C1000406801E0EB48406A2021022292FAA2F2D9
:101C2000B2FA82F2114301F01F02012191400840F3
:101C30000028B9D1207800F00800082851D1A06907
:101C400080B3012090FAA0F1B1FA81F1DE4A02EBF3
:101C50008101C1F88004FFF7EDFA054606E0FFF7C1
:101C6000E9FA401B022801D9032000E66020022186
:101C700091FAA1F1B1FA81F108430121B1EB601FA2
:101C800002D1D04800681EE06020022191FAA1F143
:101C9000B1FA81F108430221B1EB601F03D1C948B9
:101CA000006A10E01EE06020022191FAA1F1B1FA71
:101CB00081F108430421B1EB601F02D1C1484068A3
:101CC00001E0C048406A6021022292FAA2F2B2FA10
:101CD00082F2114301F01F020121914008400028C7
:101CE000BDD04FE00020012191FAA1F1B1FA81F1BC
:101CF000B54A02EB8101C1F88004FFF79BFA054663
:101D000006E0FFF797FA401B022801D90320AEE551
:101D10006020022191FAA1F1B1FA81F10843012179
:101D2000B1EB601F02D1A74800681DE060200221CE
:101D300091FAA1F1B1FA81F108430221B1EB601FE0
:101D400002D1A048006A0FE06020022191FAA1F1BF
:101D5000B1FA81F108430421B1EB601F02D1994827
:101D6000406801E09748406A6021022292FAA2F29C
:101D7000B2FA82F2114301F01F02012191400840A2
:101D80000028BED1207800F00400042873D100267A
:101D90008C48C06900F0805070B900BF8948C069A4
:101DA00040F080508749C8610846C06900F0805003
:101DB000009000BF00BF01268448006800F48070D6
:101DC000B0B98248006840F4807080490860FFF72D
:101DD00031FA054606E0FFF72DFA401B642801D9C9
:101DE000032044E57948006800F480700028F2D0B0
:101DF00000BFE068012806D17248006A40F0010087
:101E00007049086227E0E06858B96E48006A20F01F
:101E100001006C4908620846006A20F0040008626C
:101E200019E0E06805280BD16648006A40F004001C
:101E3000644908620846006A40F0010008620AE04E
:101E40006048006A20F001005E4908620846006AA6
:101E500020F00400086200BFE068B8B3FFF7EAF9B9
:101E6000054609E0FFF7E6F9401B41F28831884258
:101E700002D90320FBE48BE04020022191FAA1F17A
:101E8000B1FA81F108430121B1EB601F02D14D4845
:101E900000681EE04020022191FAA1F1B1FA81F11F
:101EA00008430221B1EB601F02D14648006A10E0EE
:101EB0004020022191FAA1F1B1FA81F108430421F5
:101EC000B1EB601F03D13F48406802E010E03D489D
:101ED000406A4021022292FAA2F2B2FA82F211433F
:101EE00001F01F020121914008400028BAD046E0CD
:101EF000FFF7A0F9054608E0FFF79CF9401B41F207
:101F00008831884201D90320B1E44020022191FAAE
:101F1000A1F1B1FA81F108430121B1EB601F02D1B7
:101F2000284800681DE04020022191FAA1F1B1FA91
:101F300081F108430221B1EB601F02D12148006A00
:101F40000FE04020022191FAA1F1B1FA81F108439A
:101F50000421B1EB601F02D11A48406801E0194822
:101F6000406A4021022292FAA2F2B2FA82F21143AE
:101F700001F01F020121914008400028BCD1012E30
:101F800005D11048C06920F080500E49C86100BFDB
:101F9000E069002874D00B48406800F00C00082865
:101FA0006FD0E06902286DD100204FF0807191FA66
:101FB000A1F1B1FA81F1044A42F82100FFF73AF9A0
:101FC00005460CE000100240000042420070004054
:101FD000FFF730F9401B022801D9032047E42020F5
:101FE000010591FAA1F1B1FA81F108430121B1EBA8
:101FF000601F02D16F4800681DE02020010591FAA2
:10200000A1F1B1FA81F108430221B1EB601F02D1C5
:102010006848006A0FE02020010591FAA1F1B1FAA9
:1020200081F108430421B1EB601F02D1614840688F
:1020300001E06048406A20210A0592FAA2F2B2FA51
:1020400082F2114301F01F02012191400840002853
:10205000BED1D4E9081008435649496821F47411E7
:102060000843544948600121080690FAA0F0B0FAEC
:1020700080F0514A42F82010FFF7DCF8054609E0ED
:1020800095E092E041E0FFF7D5F8401B022801D926
:10209000032038E42020010591FAA1F1B1FA81F181
:1020A00008430121B1EB601F02D1424800681DE0E6
:1020B0002020010591FAA1F1B1FA81F10843022132
:1020C000B1EB601F02D13B48006A0FE02020010500
:1020D00091FAA1F1B1FA81F108430421B1EB601F3B
:1020E00002D13448406801E03248406A20210A05A4
:1020F00092FAA2F2B2FA82F2114301F01F02012118
:10210000914008400028BED051E000214FF080707F
:1021100090FAA0F0B0FA80F0274A42F82010FFF7BA
:1021200089F8054606E0FFF785F8401B022801D92B
:1021300003202FE42020010591FAA1F1B1FA81F1E9
:1021400008430121B1EB601F02D11A4800681DE06D
:102150002020010591FAA1F1B1FA81F10843022191
:10216000B1EB601F02D11348006A0FE02020010587
:1021700091FAA1F1B1FA81F108430421B1EB601F9A
:1021800002D10C48406801E00A48406A20210A0553
:1021900092FAA2F2B2FA82F2114301F01F02012177
:1021A000914008400028BED101E001207FE40020DA
:1021B0007DE400000010024000004242042808D1E3
:1021C0004FF0E021096941F004014FF0E022116174
:1021D00007E04FF0E021096921F004014FF0E0220F
:1021E00011617047704770B504462546681EB0F10E
:1021F000807F01D301200FE0681E4FF0E02148618D
:102200000F214FF0FF3000F0A9F800204FF0E0213F
:10221000886107200861002070BD10B5FFF7E2FF5C
:1022200010BD00BFFEE7000000B587B000BF1D482D
:10223000406940F480001B4948610846406900F449
:102240008000019000BF00BF00BF0846406940F415
:10225000003048610846406900F40030019000BF3A
:1022600000BF00BF0846406940F48020486108462E
:10227000406900F48020019000BF00BF00224FF4AD
:1022800040710948FEF7D0FF4FF4407002900120E2
:10229000039000200490059002A90348FEF7DEFE9B
:1022A00007B000BD001002400004004800BFFEE778
:1022B000704700004FF0FF310C4A116001220B49BA
:1022C0008039C1F8842049174FF0E022C2F880120B
:1022D000012207490A60002004E0002205490A544F
:1022E000411CC8B22028F8DB7047000080E100E004
:1022F00084E200E000E400E002480068C0F302204D
:10230000704700000CED00E04FF02061114A1160B1
:102310000021121D11601049121D11600021121DB3
:102320001160121D1160002005E0002209491431DE
:102330000A54411CC8B22028F7DB0021054A20328C
:102340001160491E121D1160121D1160121D1160D5
:102350007047000004ED00E00000FA0510B5002809
:1023600007DA0A07140E054A00F00F031B1FD454A6
:1023700003E00A07130E024A135410BD18ED00E0E3
:1023800000E400E07047704710B5FEF759FFFFF713
:1023900044FF10BD10B590B0012006904FF4A0206E
:1023A00007900020089001200A9002200D90C103A0
:1023B0000E914FF4E0110F9106A8FFF7FFF918B145
:1023C000962115A000F07AF80F20019002200290CB
:1023D000002003904FF480600490002005900221BB
:1023E00001A8FFF729F818B1A4210BA000F066F8A6
:1023F000FFF798F94FF47A71B0FBF1F42046FFF73C
:10240000F2FE0420FFF7DAFE00221146501EFEF70E
:102410009EFF10B010BD00002E2E2F5372632F6D43
:1024200061696E2E6300000062B61A48006840F4CD
:102430007000184908601848006840F0010016490B
:102440000860084640681549084013494860084636
:10245000006813490840104908600846006820F4E5
:10246000802008600846406820F4FE004860084666
:10247000C06A20F00F00C8620846006B0949084096
:102480000549086300208860C80302498039086054
:102490007047000088ED00E0001002400CC07FF89B
:1024A000FFFFF6FECCFC00FF10B50248FEF700F976
:1024B00010BD00005000002000BFFEE700BFFEE797
:1024C00002E008C8121F08C1002AFAD170477047FD
:1024D000002001E001C1121F002AFBD1704700005B
:1024E000F0B585B004462688002002900390049041
:1024F00097A103C9CDE900012088FF2809D108224E
:102500006946201DFDF775FE18B900F0B9FA05B04F
:10251000F0BDF01120B102287ED004287DD103E067
:10252000204600F019FC0FE12079801100B1EEE7A0
:102530002079212830D16179A07901EB0021E0795F
:1025400001EB0041207A01EB006083490860617A69
:10255000A07A01EB0021E07A01EB00407F4908609E
:1025600000207F49086000F0C1F900F5207080B2BA
:10257000ADF8080008208DF80B0060208DF80C00E5
:10258000D4F80520CDF80D20B4F80920ADF81120BD
:10259000E17A8DF813108BE0207900F00F00E8BB92
:1025A0006F4800684FF48C61B0FBF1F201FB120040
:1025B0006C490144D4F805200A60B4F809208A80E7
:1025C000E07A887166480068C01D65490860084661
:1025D00000684FF48C61B0FBF1F201FB120058B9B6
:1025E0004A1060495C48006800F090FA5A48006858
:1025F00000F58C605849086000F078F900F520700B
:1026000080B2ADF8080008208DF80B00207920304A
:10261000C0B28DF80C004BE04EE094E0FFE720796B
:1026200000F00F00401C0921A1EB6000C5B24C482E
:1026300000684FF48C61B0FBF1F201FB12004949D4
:1026400047182A46611D3846FDF7BAFD4448006820
:10265000284443490860084600684FF48C61B0FB89
:10266000F1F201FB1200401C47083A463D493A4846
:10267000006800F04BFA00F039F900F5207080B2E4
:10268000ADF8080008208DF80B00207900F0F0006C
:102690002030C0B28DF80C002021022000F0ECFAAE
:1026A00031A000F028FB0A21FF2000F0E5FA00BF6E
:1026B00002A800F0CDF847E02079C01100B126E76C
:1026C0002079402833D100F011F900F5C07080B2B4
:1026D000ADF8080008208DF80B006179A07901EBB6
:1026E0000021E07901EB0041207A01EB00602449F0
:1026F0000860617AA07A01EB0021E07A01EB0040EA
:102700002049086000202049086041208DF80C0015
:10271000D4F80520CDF80D20B4F80920ADF811202B
:10272000E17A8DF8131002A800F092F80AE02079FF
:10273000602802D02079702804D121796039C8B28C
:1027400000F06CFB00E000BF00BF00BFDFE6000050
:10275000225A584657504D4A0400002008000020D5
:102760000C0000209400002020446F776E6C6F6195
:102770006420636F6D706C657465642120000000D7
:1027800010000020140000201800002010B58AB0AE
:10279000044600212448C1604FF4C021016100219A
:1027A00041611C2000F032FA1F490863242000F028
:1027B0002DFA1D494863242000F028FA1A4988633D
:1027C0000420486008460460002181608161C16185
:1027D0000162416281620121C162FEF785F818B190
:1027E000B62112A0FFF76AFE002005900690012096
:1027F0000790002000900190029003900490012027
:10280000089069460848FDF7C3FE18B1C72107A024
:10281000FFF754FE00210448FEF77CF91420FEF770
:1028200089FD00200AB010BD500000202E2E5C62F1
:102830006F6F746C6F6465722D6465766963655C37
:1028400063616E5F6472697665722E6300000000DA
:1028500070B5044620881549096B086000201349AB
:10286000096B4860A0781149096BC86000200F49C6
:10287000096B8860E0780D49096B0861002507E065
:10288000201D415D0948006B14304155681CC5B2DC
:10289000E078A842F4DC0A210448FEF7F7F906467E
:1028A0000EB9012070BD0020FCE7000050000020A0
:1028B00000B514220249034800F01AF900BD0000D7
:1028C000540900200090030810B52821054800F0A5
:1028D000EAF808B9002010BD14220349014800F0AD
:1028E00015F9F8E7009003085409002001484088D2
:1028F000704700000080030810B5FFF7D9FFFFF70D
:10290000F5FF4FF6FF71884202D1012000F0AEF8CA
:1029100010BD000010B51B48408801282DD172B6AB
:10292000012080F3108800BF1648406800681649EF
:102930000840B0F1005F22D172B612484068446886
:10294000002080F3148800BF0E494968086880F3AE
:10295000088800BF00204FF0E021086148618861CD
:102960001420FEF7D9FCFFF7A5FCFFF7CDFC0548C6
:10297000406806490860A04701E0002010BD012022
:10298000FCE70000009003080000FE2F08ED00E0C7
:102990003EB504468DF8044004F0010058B11B48D0
:1029A000C0880090BDF80000ADF80500032201A921
:1029B000012000F013FA04F0020002280BD11448A1
:1029C00040880090BDF80000ADF80500032201A981
:1029D000012000F003FA04F00400042808D10C4898
:1029E0004568CDF80550052201A9012000F0F6F94F
:1029F00004F00800082808D105488568CDF805507E
:102A0000052201A9012000F0E9F93EBD008003087C
:102A1000009003087CB5044665798DF800500120CC
:102A20008DF80100022D04D0042D06D0082D0ED102
:102A300008E00D49E08848800DE00B49D4F8060015
:102A4000486008E00849D4F80600886003E00020E8
:102A50008DF8010000BF00BF02226946104600F059
:102A6000BDF9FFF731FF7CBD5409002001B50122FB
:102A70006946024800F04AF808BD000002800308D9
:102A80000EB58020ADF8000000208DF80200012076
:102A90008DF80300FFF72AFFC0B28DF804006846E6
:102AA000FFF7D6FE0EBD7FB504460D46002600207A
:102AB00000900190029405F50060C00A0390FEF7B3
:102AC000B7FA694601A8FEF751FA00B90126FEF7E8
:102AD000A5FA304604B070BD30B503461C46002050
:102AE00002E0255C0D54401C9042FAD3012030BD19
:102AF00030B503461C46002004E034F8105021F89D
:102B00001050401C9042F8D3012030BD2DE9F04117
:102B100005460E4617464FF00008FEF789FA0024D6
:102B200018E036F81410022202FB0450FDF7D0FC26
:102B30004CF25030FDF7FAFC80460948006920F05D
:102B4000010007490861B8F1000F02D00020BDE87C
:102B5000F081641CBC42E4D3FEF760FA0120F6E782
:102B60000020024001460A2903DA01F13000C0B218
:102B70007047102903DA01F13700C0B2F8E70020EE
:102B8000F6E700000EB50020009001900290FFF7DC
:102B90008FFE1A48008808B9FFF7BCFE00201849CC
:102BA0000880FFF791FEFEF753FBFFF7F3FBFFF7FB
:102BB0003BFB1448FFF7EAFDFFF79EFEFFF760FFBF
:102BC0001BE000224FF480710F48FEF72DFB01221D
:102BD00051020D48FEF728FB6420FEF7B8F90122E8
:102BE00011020948FEF720FB00224FF4007106484D
:102BF000FEF71AFB6420FEF7AAF9E2E7009003084B
:102C0000540900200064004000040048F0B50B3077
:102C1000154D20F007010024144A0FE003688B4291
:102C20000BD38B4205D95E1A43184768C3E9006786
:102C300000E04368136002C004E0021D1068002831
:102C4000ECD12046002802D1286808B10020F0BD50
:102C5000064A07481060074A121A22F00702C0E924
:102C6000002401202860D7E728000020240000204D
:102C700084090020800B00202DE9FE4306460F4604
:102C800000200090019002908046002430222146CE
:102C9000641C0DF8012078222146641C0DF80120E7
:102CA000012516E02020A0EB850026FA00F000F0B8
:102CB0000F0212B9B8F1010F09D11046FFF752FF08
:102CC0002146631CDCB20DF801004FF00108681CBE
:102CD000C5B2082DE6DD2046611CCCB20DF80070AF
:102CE00000222046611CCCB20DF80020684600F09E
:102CF00002F8BDE8FE833EB505462846FDF772FAA8
:102D000084B22544FFF7F2FD00F5407080B2ADF8C3
:102D1000000000208DF8020008208DF803000AE072
:102D2000281B0168019140680290A4F1080084B258
:102D30006846FFF78DFD082CF2DCE0B28DF8030049
:102D4000291B224601A8FDF73BFA002101A80155E5
:102D50006846FFF77DFD3EBD2DE9F0410446277929
:102D6000012F06D0022F08D0032F0AD0042F2CD118
:102D700023E06079FFF70CFE28E02046FFF74AFECB
:102D800024E06179A07901EB0021E07901EB0041B9
:102D9000207A01EB0065617AA07A01EB0021E07AEC
:102DA00001EB004086B231462846FFF77CFE012247
:102DB0000849032000F012F808E0FEF71BFB01228F
:102DC0000549042000F00AF800E000BF00BFBDE89C
:102DD000F08100001C0000201D000020FEB505460B
:102DE0000E461446FFF782FD803080B2ADF8000039
:102DF00000208DF80200601CC0B28DF803008DF831
:102E00000450002004E0335C411C01AA5354C8B2B2
:102E1000A042F8DB6846FFF71BFDFEBD3EB5044649
:102E20000020009001900290FFF760FD00F5C07057
:102E300080B2ADF8000000208DF802008DF804404B
:102E400008208DF803004B4800684FF48C61B0FBFC
:102E5000F1F201FB120048BB474800684549096888
:102E6000401AB0F58C6F0DD94FF48C624349444839
:102E70000068FFF731FE4248006800F58C60404969
:102E8000086013E03C4800683A490968421A3B4927
:102E90003B480068FFF720FE37480068354909685D
:102EA000401A3749096808443549086032480068C3
:102EB0003049096888420BD120210220FFF7DCFE4F
:102EC00030A0FFF718FF0A21FF20FFF7D5FE3EBD17
:102ED0002948006827490968401A07282CD89DF816
:102EE000040025490968234A1268891AC1F10901B9
:102EF0000122C2EB41010844C0B28DF80400002059
:102F00000EE01C4909684FF48C62B1FBF2F302FB3E
:102F100013110144194A535C01A9421C8B54401CF3
:102F200015490968134A1268891A8142E9D812487A
:102F300000681049086017E000200EE00D4909689C
:102F40004FF48C62B1FBF2F302FB131101440B4A04
:102F5000535C01A9421C8B54401C0728EED3054842
:102F60000068C01D034908606846FFF771FC00BF98
:102F7000ADE700001800002014000020F404002039
:102F8000100000202055706C6F616420636F6D70BD
:102F90006C657465642120000203040506070809B6
:102FA0000A0B0C0D0E0F1010010203040506070892
:102FB000090A0B0C0D0E0F100000000000000000AD
:102FC00001020304060708090000000001020304CF
:102FD000F02F0008000000202C000000C024000892
:102FE0001C3000082C000020540F0000D0240008E2
:102FF00000000000000000000000000000000000D1
:1030000000000000000000000000000001000000BF
:0C30100000127A00000000000000000028
:040000050800018965
:00000001FF
